:020000021000EC
:1000B0004D719818A3B5E18252F23C11A3B9F182B7
:1000C000854786173EF9930780023EDDC56726FE09
:1000D0004AFA3AF586E6A2E24EF656EE5AEA5EE6AD
:1000E00062E2E6FDEAF9EEF5AA842E89814613065E
:1000F0004004938787B5781919A003C60700230029
:10010000C7008507050775FAC5671306400493877E
:1001100087B7181819A003C607002300C700850772
:10012000050775FA4964A9471304842C4565232EF5
:10013000F464130585BD36E4EF0080614565130561
:1001400005BEEF00E060C569A945138509C1EF0050
:10015000206083A77181A266638007464565130509
:1001600085C1EF00E05EA945138509C1EF00405E3F
:10017000A266854763CB974A45659305401F1305E3
:1001800085C7EF00E05CB74700409C633AF4930AF0
:10019000401FA3A9F1809D474567939B0702130762
:1001A00087B94D6CA14782173AF013078C2C3AECB3
:1001B000A10713877B00854C930D01051389B1833B
:1001C0003AE43EE8130C3004C56B93071004238E09
:1001D000F1808547A3AFF18093072004A38DF180C0
:1001E000027793064004EE8719A083460700238018
:1001F000D70005078507F5FAEE850818EF00900B84
:100200002A8713371700A3AFE18022678327C465CD
:1002100003B531832330E90221478527232CE908E0
:100220004267232EF464E2672330E4661D4723A06F
:10023000E7609547A3A1F182EF00407383C5B181C8
:100240009307000403C5C18163F5B73683AF3182DC
:100250008146AA87130610040D4705261376F60F6C
:1002600063EAC502E31B86FF9306400413878BBB3A
:10027000EE8719A0834607002380D700050785076E
:10028000F5FAB28705261376F60FE68F6687854660
:10029000E3FAC5FC91C6238EF180A3A1F1833E85CC
:1002A0009B171700B99F1D473BC7E702E5379B9691
:1002B0003700BB87F640999F9B0607001307100481
:1002C0006316E50003A73182A526999E852CE3DEFF
:1002D0009AEF4565A945130585CA3EE836E4C56B26
:1002E000EF000047A94513850BC1EF006046456547
:1002F000A945130505CCEF00A045A94513850BC101
:10030000EF00004583A531824565130585CFC5649F
:10031000EF0000449545138584D1EF00604383A529
:10032000F1814565130585D3EF008042854513852E
:1003300084D1EF00E04183C5C1814565130585D5B2
:10034000EF000041C56993051004138589D7EF00BC
:10035000204083C5B1814565130585D9EF00403F35
:1003600093052004138589D7EF00803E8325090279
:100370004565130585DBEF00A03D9D45138584D1C0
:10038000EF00003D8325C4654565130585DDEF005D
:10039000203C4565A945130585DFEF00603B4565B9
:1003A000A945130585E2EF00A03A4565A945130567
:1003B00085E3EF00E03903B73183456D13050DE7A1
:1003C0000C47456CC56BEF00A0388145138584D17F
:1003D000EF00003803B7318313050CE9456B4C4738
:1003E000C569930C803EEF00A0368945138584D102
:1003F000EF00003603B7318313850BEB0C4B4964D8
:10040000EF000035C545138584D1EF00603483B516
:10041000318313050BEDD105EF008033A94513851A
:1004200009EFEF00E0324565A945130585F2EF00BD
:1004300020324565A945130505F4EF00603103B787
:10044000B18213050DE70C47EF008030814513851D
:1004500084D1EF00E02F03B7B18213050CE94C47BC
:10046000EF00002F8545138584D1EF00602E03B780
:10047000B18213850BEB0C4BEF00802DC945138522
:1004800084D1EF00E02C83B5B18213050BEDD105CB
:10049000EF00002CA945138509EFEF00602BA26641
:1004A0004565130585F8B685EF00802A95451385C7
:1004B00084D1EF00E029C2674565130585FABE8542
:1004C000EF000029B545138584D1EF00602845650C
:1004D0009D45130585FCEF00A0279D45138584D11C
:1004E000EF00002745658545130585FEEF00402692
:1004F0008545138584D1EF00A02545650C181305AB
:100500008500EF00E0244565A94513058502EF004D
:1005100020244565EE8513050506EF00602345653B
:10052000A94513050508EF00A0222277B747004030
:100530009C6383A53181456581273B87B7403B5745
:1005400097031305850BA3A7F1802328E41CEF0074
:10055000202083A5F18045651305050DEF00401FA0
:100560008327041DADEB4565A9451305850EEF00F6
:10057000201E4565A94513050512EF00601DC56BDA
:10058000A94513850BC1EF00A01C0F00F00F7300ED
:100590000000B6601664F2745279B279127AF26A87
:1005A000526BB26B126CEE7C4E7DAE7D014571617B
:1005B0008280B547854619B34565A945130585C4AD
:1005C00036E4EF00E018C567A945138507C1EF00C1
:1005D0002018A26679BEBB8C5C034565C96493058F
:1005E0000002130585143BD75703BBDCFC02C96727
:1005F00023A6E71C23A4941DEF0080158325041D6A
:100600004565568613058517EF00801445659305EB
:10061000000213050519EF00A01383A5841C45658E
:100620001305051CEF00C0128DB783378900130630
:10063000000203C707006317C70003C71700850739
:10064000E30DC7FE1306D002630AC70803C50700FF
:100650003E8725469B0505FD93F7F50F8148636CA2
:10066000F60881472548034517001B962700B19FD0
:100670009B971700AD9F9B0505FD13F6F50F05072A
:10068000E373C8FE639608024565BE85130585C7FA
:1006900036E83EE4EF00C00B3747004018633EF4F5
:1006A000A3A9E180A267C266B5C7BE8AEDB481473F
:1006B000BB0AF0404565D685130585C736E4EF00D3
:1006C0002009B74700409C633AF4A3A9F180A266D1
:1006D0008147930D01051389B183E5BE03C517005A
:1006E0001387170025469B0505FD93F7F50FE3607B
:1006F000F6FC8548BDB745658145130585C736E4D9
:10070000EF000005B74700409C633AF4A3A9F180CD
:10071000814A75BF814A930D01051389B18355BE86
:10072000834705008DC7011122E806EC2A8405469F
:100730009305F1000545A307F1000504EF00003E15
:1007400083470400EDF7E2604264056182808280A5
:1007500031713AF186FCA2F8A6F4CAF0CEECD2E8E8
:10076000D6E4DAE05EFC2EE532E936ED3EF542F9FC
:1007700046FD8347050038013AE0B5CF13098101F2
:10078000054A456B2A843B0A2A41130B0BB48A8A1B
:1007900081A00347140093064006930924006307D1
:1007A000D70E63E6E606630AF70C93073006631B71
:1007B000F70A82670546CA8598430545A1073EE0CA
:1007C000230CE1004E84EF00603583C7140085C719
:1007D0001307500293041400E38DE7FA0546CA8517
:1007E0000545230CF100EF006033A687A2843E8408
:1007F00083C71400F1FFE6704674A6740679E669B3
:10080000466AA66A066BE27B0145296182809307EE
:100810003007630DF70C930780076315F7048267B1
:1008200083350B0003368B0003470B019443A1076C
:100830003EE02EEC32F02304E102230801003C00EC
:1008400013F7F60010183297034787FEFD179BD663
:1008500046002384E700E39557FF2800EFF05FECA4
:100860004E84A5B7930750020546CA850545230C5B
:10087000F100EF00A02A834714000546CA8505450C
:10088000230CF1004E84EF00602981B702671C43FE
:1008900021073AE063C40706C1C381454A87294658
:1008A000BBE6C7023B04EA000507BBC7C7029B863D
:1008B0000603A30FD7FEEDF7B1E59B07F4FF13077F
:1008C00071018217B30B870081934A94B38BFB406D
:1008D0008347F4FF05467D142C0005452304F100F1
:1008E000EF00C023E3968BFE4E84C5B582674E842D
:1008F0008863A1073EE0EFF0BFE2C1BDBB07F04057
:10090000854569BF9307D00205462C0005452304A1
:10091000F100EF00A02055B7930700030546CA85F4
:100920000545230CF1004E84EF00401F79BD93086C
:10093000D0057300000001A08280AA8703C70500CC
:1009400085078505A38FE7FE75FB82808347050039
:1009500003C7050091CB0505850519C3E388E7FEAC
:100960001B850700199D82800145EDBF03B73183C8
:100970001C610C63147B833E8700033E0701033335
:10098000870183380702033887028CE30C6123B4A4
:10099000D70123B8C70194FB23BC670023B017031A
:1009A00023B40703954614C98CE30C6303A7318273
:1009B0008CE303B63183312794CB18CA984711E7EB
:1009C0001862C94694CB98E382801C6183B8070003
:1009D00003B887008C6B906F947398779C7B23305F
:1009E0001501233405010CE910ED14F118F51CF97B
:1009F000828003C7C181930710046303F7008280DC
:100A00001C4103A73182A527999F1CC1828083B70F
:100A1000318389C79C631CE183B7318303A731828B
:100A2000312798CB828083C7C18183A6F1819387C8
:100A3000F7FB93B71700D58FA3AFF18013072004FE
:100A4000A38DE180828013071004238EE180A3AF81
:100A500001808280828009252D9D08C282809B07AB
:100A600056001307800C3387E7023E880A068A0780
:100A70003E9514C154C1232C0507B307C700AE9798
:100A8000944B23AA070123AC0701852694CB14417C
:100A9000BA958567B295BE95154723AAD5FAA3A145
:100AA000E18282806304B50001458280238EA180AB
:100AB000054582808347250083C6350003C6C18172
:100AC00001476387D70219C3238EC180834705007E
:100AD0009DC303C705000505850519C3E308F7FE97
:100AE000999F635AF0002947A3A1E18205458280BE
:100AF00005473E86F9B70145828079151335150003
:100B000082800145828001458280014582800145C5
:100B10008280014582800145828082803285635DCA
:100B2000C000B386C5003707004083C705008505B0
:0A0B30002300F700E39BD5FE82804E
:100B40003031323334353637383961626364656643
:100B500000000000000000004448525953544F4E1A
:100B6000452050524F4752414D2C20534F4D452068
:100B7000535452494E4700004448525953544F4E23
:100B8000452050524F4752414D2C2031275354207D
:100B9000535452494E4700004448525953544F4E03
:100BA000452050524F4752414D2C2032274E442071
:100BB000535452494E4700004448525953544F4EE3
:100BC000452050524F4752414D2C2033275244204C
:100BD000535452494E4700000A0000000000000034
:100BE0004468727973746F6E652042656E63686DD8
:100BF00061726B2C2056657273696F6E20322E31D4
:100C000020284C616E67756167653A2043290A00A8
:100C1000202563000000000050726F6772616D2034
:100C2000636F6D70696C65642077697468202772E2
:100C3000656769737465722720617474726962757F
:100C400074650A000000000050726F6772616D20C9
:100C5000636F6D70696C656420776974686F757413
:100C600020277265676973746572272061747472D6
:100C70006962757465256300457865637574696F8D
:100C80006E207374617274732C2025642072756EEB
:100C900073207468726F7567682044687279737422
:100CA0006F6E650A00000000457865637574696FB2
:100CB0006E20656E64732563000000000000000074
:100CC00046696E616C2076616C756573206F662075
:100CD000746865207661726961626C6573207573F2
:100CE000656420696E207468652062656E63686D56
:100CF00061726B3A25630000496E745F476C6F62E6
:100D00003A20202020202020202020202025640A96
:100D100000000000000000002020202020202020D3
:100D200073686F756C642062653A20202025640A20
:100D30000000000000000000426F6F6C5F476C6FA6
:100D4000623A202020202020202020202025640A14
:100D5000000000000000000043685F315F476C6FD7
:100D6000623A202020202020202020202025630AF5
:100D70000000000000000000202020202020202073
:100D800073686F756C642062653A20202025630AC1
:100D9000000000000000000043685F325F476C6F96
:100DA000623A202020202020202020202025630AB5
:100DB00000000000000000004172725F315F476C6C
:100DC0006F625B385D3A2020202020202025640AB5
:100DD00000000000000000004172725F325F476C4B
:100DE0006F625B385D5B375D3A2020202025640A06
:100DF00000000000000000002020202020202020F3
:100E000073686F756C642062653A2020204E756DA2
:100E10006265725F4F665F52756E73202B203130B2
:100E200025630000000000005074725F476C6F6221
:100E30002D3E2563000000002020202020202020BF
:100E400073686F756C642062653A20202028696D94
:100E5000706C656D656E746174696F6E2D6465701C
:100E6000656E64656E742925630000000000000053
:100E7000202044697363723A202020202020202003
:100E8000202020202025640A00000000000000002F
:100E90002020456E756D5F436F6D703A20202020D5
:100EA000202020202025640A00000000000000000F
:100EB0002020496E745F436F6D703A2020202020FF
:100EC000202020202025640A0000000000000000EF
:100ED00020205374725F436F6D703A2020202020D1
:100EE000202020202025730A0000000000000000C0
:100EF000202020202020202073686F756C642062E1
:100F0000653A2020204448525953544F4E452050B2
:100F1000524F4752414D2C20534F4D452053545270
:100F2000494E4725630000004E6578745F50747227
:100F30005F476C6F622D3E256300000000000000DB
:100F4000202020202020202073686F756C64206290
:100F5000653A20202028696D706C656D656E74613E
:100F600074696F6E2D646570656E64656E74292C8E
:100F70002073616D652061732061626F7665256302
:100F80000000000000000000496E745F315F4C6F8C
:100F9000633A202020202020202020202025640AC1
:100FA0000000000000000000496E745F325F4C6F6B
:100FB000633A202020202020202020202025640AA1
:100FC0000000000000000000496E745F335F4C6F4A
:100FD000633A202020202020202020202025640A81
:100FE0000000000000000000456E756D5F4C6F63EF
:100FF0003A20202020202020202020202025640AA4
:1010000000000000000000005374725F315F4C6FFD
:10101000633A202020202020202020202025730A31
:1010200000000000000000002020202020202020C0
:1010300073686F756C642062653A202020444852C2
:101040005953544F4E452050524F4752414D2C203A
:101050003127535420535452494E47256300000012
:101060005374725F325F4C6F633A2020202020203F
:10107000202020202025730A00000000000000002E
:10108000202020202020202073686F756C6420624F
:10109000653A2020204448525953544F4E45205021
:1010A000524F4752414D2C2032274E442053545228
:1010B000494E472563000000426567696E20546908
:1010C0006D65203D2025640A00000000000000003E
:1010D000456E642054696D652020203D2025640AFA
:1010E00000000000000000004D65617375726564CA
:1010F0002074696D6520746F6F20736D616C6C2056
:10110000746F206F627461696E206D65616E696EC7
:101110006766756C20726573756C74732563000067
:10112000506C6561736520696E63726561736520DB
:101130006E756D626572206F662072756E732563C1
:1011400000000000000000004D6963726F7365636A
:101150006F6E647320666F72206F6E652072756E9D
:10116000207468726F756768204468727973746F51
:101170006E653A25630000002564207573202F20DA
:1011800025642072756E730A0000000000000000E4
:101190004468727973746F6E657320706572205342
:1011A00065636F6E643A20202020202020202020BC
:1011B0002020202020202020202020256300000047
:0511C0002564200A0077
:04000003100000B039
:00000001FF
