:020000021000EC
:10007400B70700009387070099C7374501001305A8
:1000840005916F90B067828097210100938141E2CE
:100094001385C18217460100130646EA098E81457D
:1000A400EF10602117A50000130585E519C5174554
:1000B40000001305E585EF907064EF10800A024597
:1000C4004C000146912C6F10E00737150200B7175A
:1000D40002001307C56A9387C76A638BE700370377
:1000E400000013030300630503001305C56A0283BC
:1000F4008280B7170200371502009385C76A9307F9
:10010400C56A9D8D89858947B3C5F50291C93703B1
:10011400000013030300630503001305C56A02838B
:10012400828003C7418415EB411122C406C63E8474
:10013400693FB70700009387070089CB3715020092
:10014400130505CC97000000E700000085472382D3
:10015400F184B2402244410182808280B7070000CA
:100164009387070099CF3715020041119385818445
:10017400130505CC06C697000000E7000000B24056
:10018400410185BF011122CE00102326A4FE2324A1
:10019400B4FE2322C4FE81473E85724405618280F9
:1001A400011122CE00102326A4FE81473E8572440D
:1001B40005618280011122CE00102326A4FE81470E
:1001C4003E85724405618280011122CE00102326EF
:1001D400A4FE2324B4FE2322C4FE2320D4FE81479C
:1001E4003E85724405618280011122CE00102326CF
:1001F400A4FE2324B4FE81473E85724405618280B7
:10020400797122D60018232EA4FC232CB4FC232AB3
:10021400C4FC232604FE15A0832784FD138717003E
:10022400232CE4FC3707004083C707002300F700B2
:100234008327C4FE85072326F4FE0327C4FE8327F1
:1002440044FDE34BF7FC832744FD3E85325445616E
:100254008280011122CE00102326A4FE01007244E4
:1002640005618280797122D60018232EA4FC232CE8
:10027400B4FC8327C4FD2326F4FE0100032784FD78
:1002840093071700232CF4FC8327C4FD93861700DF
:10029400232ED4FC034707002380E70083C707000D
:1002A400F1FF8327C4FE3E853254456182800111EB
:1002B40022CE00102326A4FE2324B4FE19A88327EB
:1002C400C4FE85072326F4FE832784FE85072324A2
:1002D400F4FE8327C4FE83C7070085C3832784FEF7
:1002E40083C7070099CB8327C4FE03C7070083276E
:1002F40084FE83C70700E304F7FC8327C4FE83C797
:1003040007003E87832784FE83C70700B307F740AF
:100314003E85724405618280157186CFA2CD80111D
:100324002326A4F22324B4F2232604FEB7470200B2
:10033400130744F623AEE7E4B7470200130744F378
:1003440023A4E7E6B747020083A787E637470200FE
:100354000327C7E598C3B747020083A787E623A20C
:100364000700B747020083A787E6094798C7B7473E
:10037400020083A787E613078002D8C7B7470200A5
:1003840083A787E613870701B7F70100BA86938727
:1003940087A57D473A86BE853685EF00B063B7F7FB
:1003A400010083A887A7138787A70328470013871B
:1003B40087A70847138787A74C47138787A7104B3E
:1003C400138787A7544B138787A7184F232A14FB37
:1003D400232C04FB232EA4FA2320B4FC2322C4FCE4
:1003E4002324D4FC2326E4FC938787A703D7C701DF
:1003F4002318E4FC83C7E7012309F4FCB7170200C0
:1004040093878774294723AEE764A945B7F70100AA
:10041400138587A9EF00D076A945B7F701001385A6
:10042400C7A9EF00F075A945B7F70100138587A99F
:10043400EF00107583A7C18285C3A945B7F70100F2
:10044400138507ADEF00D073A945B7F701001385F5
:1004540087A9EF00F07239A8A945B7F70100138501
:1004640007B0EF00F071A945B7F70100138587A91C
:10047400EF0010710327C4F2854763DBE70083278D
:1004840084F291079C433E85EF00104BAA8721A07C
:100494008967938707712320F4FE832504FEB7F749
:1004A4000100138507B3EF00B06DB747004003A800
:1004B40047009C433E8723AAE18885472322F4FE14
:1004C40099AC05457933032544FE6133EF00F011FF
:1004D40009454133EF00F00B0D45A53B8947232E19
:1004E400F4FC8D472326F4FEB7F7010083A807B672
:1004F400138707B603284700138707B608471387EF
:1005040007B64C47138707B6104B138707B6544BEF
:10051400138707B6184F232A14F9232C04F9232E22
:10052400A4F82320B4FA2322C4FA2324D4FA2326D9
:10053400E4FA938707B603D7C7012318E4FA83C7FD
:10054400E7012309F4FA8547232AF4FC1305100371
:100554000933930744FB3E85ED39930744F93E85FF
:10056400CD39130744F9930744FBBA853E85EF0060
:10057400B029AA8793B7170093F7F70F3E87B747B9
:10058400020023AAE7F21145E9311DA80327C4FD9F
:10059400BA878A073E978327C4FEB307F740232C04
:1005A400F4FC8327C4FD130784FD3A868325C4FE27
:1005B4003E85EF0010088327C4FD8507232EF4FC35
:1005C4008327C4FD0327C4FEE3C2E7FC154551316C
:1005D4008327C4FD032784FDBA863E86B71702002D
:1005E40093858774B74702001385C7E6EF00B00808
:1005F40019458531B747020083A787E63E859523D1
:100604001D45813993071004A305F4FE4DA08347CB
:10061400B4FE930530043E85EF0070192A878327C2
:1006240044FD6311F708930744FDBE850145EF00BF
:10063400E07EB7F7010083A807B8138707B803283B
:100644004700138707B80847138707B84C47138731
:1006540007B8104B138707B8544B138707B8184FC4
:10066400232A14F9232C04F9232EA4F82320B4FA02
:100674002322C4FA2324D4FA2326E4FA938707B85E
:1006840003D7C7012318E4FA83C7E7012309F4FA5F
:10069400832744FE2326F4FEB7470200032744FEC3
:1006A40023A0E7E68347B4FE8507A305F4FEB74716
:1006B400020083C757E60347B4FEE3FAE7F4214593
:1006C400493E8327C4FD0327C4FEB307F70223264C
:1006D400F4FE832784FD0327C4FEB347F702232EC9
:1006E400F4FC832784FD0327C4FE1D8FBA878E077D
:1006F4003387E7408327C4FDB307F7402326F4FE7E
:100704009307C4FD3E85F1232545A136832744FE86
:1007140085072322F4FE032744FE832704FEE3D245
:10072400E7DAA945B7F70100138507BAEF0050458A
:10073400A945B7F70100138587A9EF007044A945BF
:10074400B7F70100138547BBEF009043A945B7F7FE
:100754000100138587A9EF00B042B747020083A7C1
:1007640007E6BE85B7F701001385C7BEEF00504109
:100774009545B7F70100138587C0EF007040B74770
:10078400020083A747F3BE85B7F70100138547C26C
:10079400EF00103F8545B7F70100138587C0EF00D0
:1007A400303EB747020083C747E6BE85B7F701006E
:1007B400138507C4EF00D03C93051004B7F701007C
:1007C4001385C7C5EF00D03BB747020083C757E680
:1007D400BE85B7F70100138587C7EF00703A93050C
:1007E4002004B7F701001385C7C5EF007039B74778
:1007F40002009387C7E69C53BE85B7F701001385B3
:1008040047C9EF00F0379D45B7F70100138587C04E
:10081400EF001037B71702009387877483A7C76563
:10082400BE85B7F70100138507CBEF007035A945E6
:10083400B7F701001385C7CCEF009034A945B7F78B
:100844000100138587CFEF00B033A945B7F7010046
:10085400138587D0EF00D032B747020083A787E61D
:10086400DC43BE85B7F701001385C7D3EF005031D1
:100874008145B7F70100138587C0EF007030B74793
:10088400020083A787E69C47BE85B7F7010013855E
:1008940087D5EF00F02E8945B7F70100138587C08F
:1008A400EF00102EB747020083A787E6DC47BE851A
:1008B400B7F70100138547D7EF00902CC545B7F76C
:1008C4000100138587C0EF00B02BB747020083A750
:1008D40087E6C107BE85B7F70100138507D9EF0086
:1008E400302AA945B7F701001385C7DAEF0050296C
:1008F400A945B7F70100138547DEEF007028A94525
:10090400B7F70100138587DFEF009027B747020090
:1009140083A7C7E5DC43BE85B7F701001385C7D3BA
:10092400EF0010268145B7F70100138587C0EF005B
:100934003025B747020083A7C7E59C47BE85B7F7B4
:100944000100138587D5EF00B0238545B7F7010073
:10095400138587C0EF00D022B747020083A7C7E5FD
:10096400DC47BE85B7F70100138547D7EF00502158
:10097400C945B7F70100138587C0EF007020B7475A
:10098400020083A7C7E5C107BE85B7F70100138539
:1009940007D9EF00F01EA945B7F701001385C7DAA0
:1009A400EF00101E8327C4FDBE85B7F70100138531
:1009B400C7E3EF00F01C9545B7F70100138587C026
:1009C400EF00101C8325C4FEB7F70100138587E5EB
:1009D400EF00101BB545B7F70100138587C0EF0082
:1009E400301A832784FDBE85B7F70100138547E7D6
:1009F400EF0010199D45B7F70100138587C0EF007C
:100A04003018832744FDBE85B7F70100138507E935
:100A1400EF0010178545B7F70100138587C0EF0075
:100A24003016930744FBBE85B7F701001385C7EA68
:100A3400EF001015A945B7F70100138587ECEF0007
:100A44003014930744F9BE85B7F70100138507F006
:100A5400EF001013A945B7F701001385C7F1EF00A4
:100A64003012B747004003A847009C433E87B7476E
:100A7400020023ACE7E4B747020003A787E583A796
:100A840041891D8F23A8E18883A74189BE85B7F7D3
:100A94000100138547F5EF00B00EB747020083A7A6
:100AA40087E5BE85B7F70100138587F6EF00500D83
:100AB40083A701899DE7A945B7F701001385C7F707
:100AC400EF00100CA945B7F70100138547FBEF00B1
:100AD400300BA945B7F70100138587A9EF00500A29
:100AE40095A803A70189832704FE3357F70223A49B
:100AF400E188032704FE9307803EB307F7023E878D
:100B040083A701893357F70223A6E18893050002DE
:100B1400B7F70100138587FDEF00900683A70189CD
:100B2400032604FEBE85B7F7010013858700EF0096
:100B3400300593050002B7F701001385C701EF00E4
:100B4400300483A7C188BE85B7F701001385C704A5
:100B5400EF001003029081473E85FE406E442D61F4
:100B64008280797106D622D40018232EA4FC832710
:100B7400C4FD9C432326F4FEB70702001385070136
:100B8400EFF02FEDB747020003A787E68327C4FDE4
:100B94009C43832F0700032F4700832E8700032ED7
:100BA400C700032307018328470103288701484F0F
:100BB4000C5350531457585723A0F70123A2E701AD
:100BC40023A4D70123A6C70123A8670023AA1701DA
:100BD40023AC0701C8CF8CD3D0D394D7D8D78327DD
:100BE400C4FD1547D8C78327C4FDD8478327C4FE4F
:100BF400D8C78327C4FD98438327C4FE98C383279B
:100C0400C4FE3E85252AB707020013851701EFF0BD
:100C14004FE48327C4FEDC43B9E78327C4FE1947A6
:100C2400D8C78327C4FD98478327C4FEA107BE8580
:100C34003A85ED22B707020013852701EFF06FE133
:100C4400B747020083A787E698438327C4FE98C367
:100C54008327C4FED8478327C4FEB1073E86A9452F
:100C64003A85C12AA1A88327C4FD98438327C4FDDC
:100C7400832F0700032F4700832E8700032EC7000E
:100C8400032307018328470103288701484F0C5396
:100C940050531457585723A0F70123A2E70123A464
:100CA400D70123A6C70123A8670023AA170123ACF1
:100CB4000701C8CF8CD3D0D394D7D8D7B7070200B5
:100CC40013853701EFF0EFD80100B250225445618B
:100CD4008280797106D622D40018232EA4FC232402
:100CE40004FEB707020013850702EFF08FD68327AF
:100CF400C4FD9C43A9072326F4FEB747020003C79B
:100D040047E6930710046313F7028327C4FEFD1715
:100D14002326F4FEB747020083A707E60327C4FE91
:100D24001D8F8327C4FD98C3232404FE832784FED8
:100D3400E9F70100B250225445618280011106CEC8
:100D440022CC00102326A4FEB70702001385070354
:100D5400EFF02FD0B747020083A787E689CBB747C8
:100D6400020083A787E698438327C4FE98C3B74746
:100D7400020003A707E6B747020083A787E6B10787
:100D84003E86BA85294575200100F240624405611A
:100D94008280011106CE22CC0010B7070200138511
:100DA4000704EFF00FCBB747020083C747E69387EA
:100DB400F7FB93B7170093F7F70F2326F4FEB74713
:100DC400020003A747F38327C4FE5D8FB7470200E1
:100DD40023AAE7F2B747020013072004A382E7E639
:100DE4000100F240624405618280411106C622C4BA
:100DF4000008B707020013850705EFF08FC5B74752
:100E04000200130710042382E7E6B747020023AA6F
:100E140007F20100B240224441018280011122CE36
:100E240000102326A4FE2324B4FE010072440561AD
:100E34008280797106D622D40018232EA4FC232C98
:100E4400B4FC232AC4FCB707020013850707EFF09C
:100E54004FC08327C4FD89072326F4FE032784FD9E
:100E64008327C4FE3E97832744FD98C30100B250F4
:100E7400225445618280797106D622D40018232E2B
:100E8400A4FC232CB4FC232AC4FC2328D4FCB707D9
:100E9400020013850708EFF0CFBB832744FD9507B5
:100EA4002324F4FE832784FE8A070327C4FDBA970C
:100EB400032704FD98C3832784FE8A070327C4FD00
:100EC4003E97832784FE85078A078326C4FDB69749
:100ED400184398C3832784FEF9078A070327C4FDB0
:100EE400BA97032784FE98C3832784FE2326F4FE3F
:100EF40035A0032784FE9307800CB307F70203276A
:100F040084FD3E978327C4FE8A07BA97032784FE8D
:100F140098C38327C4FE85072326F4FE832784FE13
:100F240085070327C4FEE3D6E7FC032784FE930763
:100F3400800CB307F702032784FD3E97832784FEC2
:100F4400FD178A07BA979843832684FE9307800C7B
:100F5400B387F602832684FDBE96832784FEFD179D
:100F640005078A07B69798C3832784FE8A07032751
:100F7400C4FDBA97832684FE1307800CB386E60269
:100F84000567130707FA3697832684FDBA969843B4
:100F9400832784FE8A07B69798C3B747020015478C
:100FA40023A0E7E60100B2502254456182807971A2
:100FB40006D622D40018AA872E87A30FF4FCBA877A
:100FC400230FF4FCB707030013850701EFF06FA8A4
:100FD4008347F4FDA307F4FE8347F4FE2307F4FEDE
:100FE4000347E4FE8347E4FD6304F700814701A857
:100FF400B74702000347F4FE2382E7E685473E85B0
:10100400B250225445618280797106D622D40018E8
:10101400232EA4FC232CB4FCA30504FEB707030071
:1010240013850702EFF0EFA289472326F4FE35A8C3
:101034008327C4FE0327C4FDBA9783C6070083270A
:10104400C4FE8507032784FDBA9783C70700BE85BE
:101054003685B13FAA8791EB93071004A305F4FEEC
:101064008327C4FE85072326F4FE0327C4FE89478D
:10107400E3D0E7FCB707030013851702EFF06F9D79
:101084000347B4FE9307600563FBE7000347B4FE20
:101094009307900563E5E7009D472326F4FEB70711
:1010A400030013852702EFF0CF9A0347B4FE93079A
:1010B40020056314F700854735A8B7070300138597
:1010C4003702EFF00F99832584FD0325C4FDEFF06B
:1010D4000F9EAA87635FF0008327C4FE9D07232623
:1010E400F4FEB74702000327C4FE23A0E7E68547C2
:1010F40011A081473E85B2502254456182807971A6
:1011040006D622D40018232EA4FC8327C4FD23264C
:10111400F4FEB707030013850703EFF08F9303274B
:10112400C4FE89476314F700854711A081473E85B3
:10113400B25022544561828029468145F1A6A946D0
:10114400014665AE4111814522C406C62A84EF20BA
:10115400C02A03A581815C5D91C382972285EFD06B
:10116400300F411122C44AC037140200371902005B
:10117400930704D0130909D03309F94006C626C2DF
:1011840013592940630B0900130404D081441C4003
:10119400850411048297E31C99FE37140200371961
:1011A4000200930704D0130989D03309F940135975
:1011B4002940630B0900130404D081441C408504B6
:1011C40011048297E31C99FEB240224492440249DE
:1011D40041018280B3C7A5008D8BB308C500A1E788
:1011E4008D4763F2C704937735002A87A9EB13F67A
:1011F400C8FF930706FE6367F7066373C702AE86EC
:10120400BA8703A806009107910623AE07FFE3EA15
:10121400C7FE9307F6FF998FF19B91073E97BE9502
:101224006366170182802A87E37E15FF83C7050062
:1012340005078505A30FF7FEE36A17FF828083C6BF
:101244000500050793773700A30FD7FE8505C5D39F
:1012540083C60500050793773700A30FD7FE8505DE
:10126400F9FF71B7944183A2450083AF850003AFB2
:10127400C50083AE050103AE450103A3850103A8A0
:10128400C5019385450214C383A6C5FF23225700D5
:101294002324F7012326E7012328D701232AC701A2
:1012A400232C6700232E070113074702232ED7FEA2
:1012B400E36AF7FA99B73D432A876373C3029377C6
:1012C400F700BDEFADE5937606FF3D8ABA960CC3F1
:1012D4004CC30CC74CC74107E36BD7FE11E28280B5
:1012E400B306C3408A069702000096966780A6005C
:1012F4002307B700A306B7002306B700A305B7006A
:101304002305B700A304B7002304B700A303B70061
:101314002303B700A302B7002302B700A301B70059
:101324002301B700A300B7002300B700828093F520
:10133400F50F93968500D58D93960501D58D61B7EC
:10134400939627009702000096968682E78086FA95
:101354009680C1171D8F3E96E374C3F8A5B7397103
:1013640032D436D63EDA3AD842DC46DE2E860C45F6
:101374003C10BE8606CE3EC6712AF24021618280B0
:1013840003A30182397132D436D63EDA2ED23AD84A
:1013940042DC46DE832583005C102A86BE861A85DD
:1013A40006CE3EC6852AF24021618280411137FE75
:1013B400010022C626C4AA832E83130E5E2211A026
:1013C4003A83130713008347F7FF3308FE0083486B
:1013D400080093F88800E39508FE1305D00263879C
:1013E400A70C1305B0026383A7063E880144ADC66B
:1013F400C147B68F6384F60CB702008019E093C22C
:10140400F2FFB3F4F203814801452543654F7D5E45
:10141400B3DEF203930708FD6378F3009307F8FB48
:101424006363FF04930798FC63D7D704638CC801F4
:10143400FD5863E9AE00638EAE0485483388AF027D
:101444003385070105070348F7FFE9B70348070099
:10145400014413072300C9FE930700036304F8083B
:10146400A94FA94651BF9307F8F96366FF00930794
:1014740098FAE3CDD7FAFD576380F80219C0330513
:10148400A04001C6639A08020CC23244A24441013E
:101494008280E3C9F4FA55B79307200223A0F3002E
:1014A400168565D69305F7FF1685F9BF034807002F
:1014B40005441307230025BFAA82EDB79307000351
:1014C400631AF800834707001305800593F7F70DA7
:1014D4006384A700C14F0DB703481700C14F090724
:1014E400C14619BF834707009306800593F7F70D9C
:1014F400E384D7FEA14FA14601B74DBDB2862E8627
:10150400AA8503A501825DB5B2862E86AA8503A5A8
:10151400018269BD41712326111E232C411D232AFA
:10152400511D2320A11D2E8A328D36C62324811EEF
:101534002322911E2320211F232E311D2328611DC8
:101544002326711D2324811D2322911D232EB11BCB
:10155400AA8AEF40E07D1C413E85BEC0EF50904A10
:101564002ADE82D982DB82DD82DF63860A0003A75A
:101574008A03E30D071E8316CA00139706014183ED
:101584009317270163CF070003264A060967558F7F
:10159400F976FD16F18E2316EA0042072322DA06B5
:1015A4004183937687006383061083260A01638F41
:1015B400060E698BA9466308D71037F70100930715
:1015C400470503470D00130BC11037F90100DAD3A7
:1015D40082D782D502CA02CC82C402DC82C282C60D
:1015E40002C23EC4DA881309091D630E072C930650
:1015F40050026314D7006F1020056A8421A0630091
:10160400D70E268403471400930414006DFBB3899A
:10161400A441638A092ABE562E5723A0A801CE9658
:10162400050723A23801B6D7BAD59D46A10863CDD4
:10163400E60A924703471400CE973EC26305072883
:101644001384140003CE1400A303010C7D538149B9
:101654008144930BA005254C930DA0020504F28C44
:1016640013870CFE63EDEB18A2470A073E97184355
:101674000287568546CE1AC8EF40806B5C413E8592
:10168400BEC6EF503038AAC2AA8C5685EF40406AD5
:101694001C454243F2483EDCE3970C66034E0400CB
:1016A40075BF93E40402034E04004DBFD2855685F2
:1016B400EF10D04519C16F10100E0357CA00A94688
:1016C400698BE31CD7EE0317EA00E34807EEB24642
:1016D4006A86D2855685EF10503A2AC291A0B38902
:1016E400A441E38F09F405BFD011D2855685EF706C
:1016F400501D05E1DA8835BFD011D2855685EF70CB
:10170400501C6306053CC24789C7BE855685EF2039
:1017140000308357CA0093F7070499C36F10B007CA
:101724008320C11E0324811E12458324411E0329E4
:10173400011E8329C11D032A811D832A411D032BF8
:10174400011D832BC11C032C811C832C411C032DE4
:10175400011C832DC11B7D618280B7F70100938733
:10176400071F3ECC93F70402D5CFB2479D07E19BF8
:1017740083AD070003AC4700138787003AC693F78D
:10178400140089C7B3E78D01E39E075C93FBF4BFA4
:101794008947A303010CFD56630ED368B3E68D019C
:1017A40093F4FBF7E39E0630E3100304639E0718EB
:1017B40013FC1B00130D011BE3180C52E28B635343
:1017C4006C009A8B0347710C02C802D602DA02D865
:1017D40063060724850B99A4814993860CFD0504AF
:1017E40013972900834CF4FFBA998609B699938616
:1017F4000CFDE376DCFE13870CFEE3F7EBE6638473
:101804000C0C23069115A303010C854B054C130DF9
:10181400C11401A4B7F70100938747203ECC93F786
:101824000402A1F7324793F70401832D070011073F
:101834003AC6E397074C93F70404E38F074AC20DB3
:1018440093DD0D01014C25BF034E040093E44400D5
:1018540031B5834C0400130714006394BC016F106A
:10186400D01C93860CFD3A840143E36BDCDE050453
:1018740013172300834CF4FF3A930603369393869D
:101884000CFDE376DCFEE9BBB24693F70402138752
:101894004600E39F074A93F70401E397077493F71D
:1018A400040499C36F10801A93F40420E38E047225
:1018B400B2473AC612479C43228D2380E700034770
:1018C4000D00E31607D2BE57E38507E4D011D28595
:1018D4005685EF70007F35BD034E04001307C00624
:1018E400E30AEE4E93E4040195BB034E0400130790
:1018F4008006E308EE4E93E404048DB393F70402E8
:10190400639B0766B24713F70401910719C36F106D
:10191400701313F70404E30907703247A68B3EC61D
:10192400831D070013DCFD41E28663C5064EFD57A7
:10193400630DF368B3E78D0193F4FBF763960768CF
:10194400630403006F10603A0143014C130D011B43
:10195400B5B593E40408034E040009B393F70402F5
:1019640093EB040163960762B24791073247014C37
:101974003EC6832D0700854729BDB247A303010C4A
:1019840003AD0700938D4700E3040D467D5746CE13
:10199400E304E3661A8681456A851AC6EF409035EA
:1019A4002AC83243F24819E16F100050C247034776
:1019B400710C6EC6338CA741934BFCFF93DBFB4148
:1019C40002C802D602DA02D8B37B7C010143E313D6
:1019D40007E0A9A093F7040293E404016397075C6A
:1019E400B24791073247014C3EC6832D0700C1AB75
:1019F40093E48400034E040095B13247A303010C21
:101A0400854B1C4311073AC62306F114054C130DEC
:101A1400C11402C8014302D602DA02D893F22400A8
:101A240063830200890B93FF44083E5763960F00BB
:101A340033887941E34800098346710C8DC2AE5660
:101A44001306710C23A0C80005070546850623A2CA
:101A5400C800BAD7B6D51D46A1086344D608638129
:101A64000202AE56B00123A0C80009070946850644
:101A740023A2C800BAD7B6D51D46A108E341D60EA5
:101A840093060008638FDF66B30D8341634DB06F27
:101A940093F60410639D0658AE57629723A0A801DD
:101AA400850723A28801BAD7BED59D4663C5F60A29
:101AB400A108918889C4B38479416348900A63D3A7
:101AC4007901DE899247CE973EC2E31707C2C24727
:101AD40082D589C7C2455685EF107073DA88228D86
:101AE400F9BBD011D28556851AD27ED016CEEF70AE
:101AF400405DE31A05C03E57DA881253825FF24212
:101B0400B9BF8646F2579D4523A0D800AE563E97EE
:101B140023A2F8008506BAD7B6D5A10863DDD5009F
:101B2400D011D2855685EF70C059E31E05BC3E46E0
:101B34003E57AE56DA88635406006F10C040D24751
:101B4400850623A0A8013E9723A2F800BAD7B6D5EC
:101B54009D47E3DFD7F4D011D2855685EF706056E8
:101B6400E31305BA3E57DA88A9B7C146AE5763C432
:101B740096006F108041B7F60100938D061C414C0E
:101B84009D4C21A0C114635A9C024107850723A0E0
:101B9400B80123A28801BAD7BED5A108E3D4FCFEBC
:101BA400D011D2855685EF70C051E31E05B4C1141F
:101BB4003E57AE57DA88E34A9CFC2697850723A054
:101BC400B80123A29800BAD7BED59D46E3D9F6EE54
:101BD400D011D2855685EF70C04EE31605B23E573C
:101BE400F9BD13F78400E30D0712B2479843910738
:101BF4003EC60C43504314475847AED9B2DBB6DD5A
:101C0400BADF881946CE1AC8EF40400EAAC7094762
:101C14004243F248E30EE5360547E30BE544130778
:101C240010066394EC006F10603F13071004E38404
:101C3400EC6693F7FCFD7D57BED66314E3006F108A
:101C44006046130770046394E7006F10C044FE5E9F
:101C5400A6DC13E70410CE525E5FEE5F63D40E0081
:101C64006F10401082DEBA8402C8365793076004AE
:101C74006314F7006F10C0129307500446D6631420
:101C8400F7006F10203B930B010B9C09F8019A8617
:101C94001308C10D0946DE8556851AD416D916D205
:101CA4007ADB7AD07EDD7ECE76DF76CAEF30001D19
:101CB400B657130770042A8DD24EF24F025F925228
:101CC4002253B2586384E7006F100059E65713F7A4
:101CD400170019C36F1060357E47B307A7413ECA8A
:101CE400BE47130770043ED8B6576394E7006F10DD
:101CF4002001B657130760046394E7006F10801E39
:101D0400C2579305100493F6FC0F1387F7FFB657D9
:101D1400BAC701466396B700BD0693F6F60F0546AB
:101D2400230AD10C635407006F10404B9306B00292
:101D3400A30AD10CA54663C4E6006F10003713084C
:101D4400310E428629451303300619A02E863687A4
:101D5400B366A7029305F6FF93860603A30FD6FE88
:101D6400B346A702E344E3FE138706031377F70F92
:101D74009306E6FFA38FE5FE63E406016F10404D72
:101D84009305610D19A003C7060085058506A38F79
:101D9400E5FEE39A06FF1307510E9307610D118FB9
:101DA4003E97D409B307D740BEC4D247A6460547D9
:101DB400338CD7006344F7006F106043F2573E9CA6
:101DC400E657934BFCFF93DBFB4193F4F7BF93E49B
:101DD4000410B37B7C0102D602DA02D8F65799E3E9
:101DE4006F0050771307D002A303E10C0143850B66
:101DF40035B193F7040293EB0401639F0716B247CE
:101E0400910732473EC6832D070013DCFD41E2866D
:101E1400E3DF06B0B30DB041B337B00133078041FF
:101E2400330CF7409307D002A303F10CFD5685470A
:101E3400E316D3968546638AD7188946638DD71AE5
:101E4400101B11A06A8693F67D009317DC0193DDC5
:101E54003D0093860603B3EDB701135C3C00A30F6A
:101E6400D6FEB3E58D01130DF6FFE9FD13F71B0054
:101E74006309071A130700036385E61A79161C1B06
:101E8400A30FEDFE338CC740DE84328D05BA324792
:101E9400E17793C707832314F10C930747003EC6E9
:101EA400B7F701009387071F3ECC832D0700014C31
:101EB40093EB24008947930C8007E1B80347710C26
:101EC400034E0400631C07F813070002A303E10C8C
:101ED4006FF0CFF81307B002A303E10C034E040024
:101EE4006FF0CFF7B247034E040083A907009107B0
:101EF4003EC663D509F6B309304193E444006FF05C
:101F0400EFF593E41400034E04006FF02FF593F7FC
:101F14000402C1EFB24613F704019387460083AD70
:101F24000600E31107AC13F70404E30D0710C20D18
:101F340093DD0D01014C3EC659A093F70402A1EBB9
:101F4400B24613F704019387460083AD060019C314
:101F54006F10A02F13F70404E3000710C20D3EC650
:101F640093DD0D01014CA68B854725B05685EF10F6
:101F740030176FF04FE0A68BB2479D07E19BD44327
:101F8400138787003AC683AD0700368C79BAA68BCF
:101F9400B2479D07E19B1387870083AD070003AC1D
:101FA40047003AC685476FF0CFFEB2479D07E19BD5
:101FB40083AD070003AC4700138787003AC693FB41
:101FC400F4BF81476FF0EFFCA68B63130C70A54739
:101FD40063E0B771938D0D03A307B11BDE84054C39
:101FE400130DF11A6FF08FFD8546E380D7508946B3
:101FF400A68BE397D7E4130D011BE24793F6FD008C
:102004001316CC01BE9683C6060093DD4D007D1DDC
:10201400B36DB601135C4C002300DD00B3E68D0103
:10202400E9FE1C1B338CA741DE846FF02FF9930665
:10203400500663D4961DCE560C11081936D9DE56B7
:102044003AD046CE36DBEE5602D102D336DDFE560A
:1020540002D502D736DFEFA00008F2480257631F0B
:102064000530AE57B7F6010093860622050723A074
:10207400D8008507854623A2D800BAD7BED51D4708
:10208400A1086347F76EBE47524763C7E70093F75B
:10209400140099E33E5731BC8647F2563E5723A0BD
:1020A400F800AE57369723A2D8008507BAD7BED515
:1020B4009D46A10863C6F650D247138CF7FFE35A36
:1020C400809FC146AE5763DF866B414D9D4C21A076
:1020D400411C63598D6B4107850723A0280123A266
:1020E400A801BAD7BED5A108E3D4FCFED011D2858D
:1020F4005685EF60107D631805E03E57AE57DA88C9
:10210400C1BFB38D7941E351B0994146AE56635492
:10211400B605C14E1D4F21A0C11D63DEBE0341079C
:10212400850623A0280123A2D801BAD7B6D5A108D1
:10213400E354DFFED011D28556851ACEEF60707855
:10214400631305DCC14EC11D3E57AE56DA881D4FE0
:102154007243E3C6BEFD6E97850623A0280123A221
:10216400B801BAD7B6D51D46A108E35FD690D01101
:10217400D28556851ACEEF60D074631605D83E57C3
:10218400DA88724311B24146AE566352B6054148ED
:102194009D4E21A0C11D635CB8034107850623A0A1
:1021A400280123A20801BAD7B6D5A108E3D4DEFEDC
:1021B400D011D2855685EF60D070631605D441489E
:1021C400C11D3E57AE56DA889D4EE348B8FD6E9762
:1021D400850623A0280123A2B801BAD7B6D51D4687
:1021E400A108E357D68AD011D2855685EF60706D69
:1021F400631B05D03E57DA8861B82E56D247854511
:1022040023A0A8010507130C1600938D880063D939
:10221400F526054623A2C800BAD7E2D51D46634871
:102224008643F2578646050C3E9723A0DD0023A281
:10223400FD00BAD7E2D51D46A10D634586434E562F
:10224400D24713031C0032D95E5693888D0013883D
:10225400F7FF32DB6E560C11081932DD7E563AD484
:102264009A8C1AD246D042CE32DF02D102D302D5A2
:1022740002D7EF9050667248825812532257630077
:10228400052293071D00429723A0FD0023A20D0100
:10229400BAD7E6D59D4763C6973193870D01930C52
:1022A4002C00C68DBE88A646DC0923A0FD00369707
:1022B40023A2DD00BAD7E6D59D4763DC97FF61B85A
:1022C400A68B8DBEB7F701004146AE56938D071C11
:1022D400414F9D4363460601B1A0411863540F0565
:1022E4004107850623A0B80123A2E801BAD7B6D5D1
:1022F400A108E3D4D3FED011D285568542D41AD294
:102304007ED016CEEF60F05B631F05BE2258414FAE
:102314003E574118AE56DA889D431253825FF2420B
:10232400E3400FFD4297850623A0B80123A20801CC
:10233400BAD7B6D51D46A1086350D6F0D011D285C0
:1023440056851AD27ED016CEEF60B057631D05BAFB
:102354003E57DA881253825FF2426FF0EFEDD011EC
:10236400D28556851AD07ECEEF60B055631D05B870
:102374003E57DA880253F24F6FF08FF03E46635EA9
:10238400C02EC257D2463E8C63CBF61E635F8001DB
:10239400AE56629723A0A801850623A28801BAD766
:1023A400B6D51D46A108634BD6669346FCFFC257BB
:1023B400FD86337CDC00338C874163478025C2571C
:1023C40093F60440B30CFD00639D064E3E4CD24789
:1023D4006346FC0093F61400638F06648646F25746
:1023E4001D4623A0D800AE563E9723A2F8008506CA
:1023F400BAD7B6D5A108E345D628D246B307DD003F
:10240400338C8641B3869741628D63D38601368DC2
:10241400635FA001AE566A9723A09801850623A2A4
:10242400A801BAD7B6D51D46A108E34DD6289346D0
:10243400FDFFFD86B377DD00330CFC40635B80E772
:10244400C146AE5763D08635414D9D4C21A0411CF9
:10245400635A8D334107850723A0280123A2A801CD
:10246400BAD7BED5A108E3D4FCFED011D2855685D7
:10247400EF603045631905A83E57AE57DA88C1BFEF
:1024840013F51400E31705D823A2B800BAD7E2D590
:102494009D4763C88711930C2600C10829B5E354EE
:1024A40000E1C147E3DD0755414D9D4C31A0411882
:1024B400635B0D0D13031C00410723A02D0123A210
:1024C400AD01BAD79AD51A8CA10DE3D26CFED01106
:1024D400D285568542CEEF60D03E631605A23E57A4
:1024E4002E5CDA8D7248E1B793070003A307F11A53
:1024F400130DF11A6FF08FAC93F704206391075614
:10250400014C6FF0CFA7E257034E04006388079491
:1025140003C707006304079493E404406FF00F9427
:10252400B247081946CE9D07E19B8C43D043A107CF
:102534001AC83EC6EFB0907D4A57F2484243BAD912
:102544005A57BADB6A57BADD7A57BADF6FF06FEBC6
:1025540012469C423AC69356F64190C3D4C3228D88
:102564006FF0EFB59307000393E424002304F10C08
:10257400A304910D93FBF4BF89476FF08FA1368CB0
:10258400E34880E11DB5930C1C0093878D004297AE
:1025940023A02D0123A20D01BAD7E6D59D4663D908
:1025A4009645D011D2855685EF60B031631D0594F0
:1025B4002E563E5793084111930C1600DA8DE5B15F
:1025C400D011D2855685EF60D02F631E05923E57F9
:1025D400DA88DDB4034E140093E4040205046FF0BA
:1025E400EF87034E140093E4042005046FF00F8773
:1025F40099471A8C63EF6742B7F70100E28B6EC606
:10260400138D87216FF0EFC04146AE56635486297F
:10261400C14D9D4C21A0411C63DE8D2741078506D9
:1026240023A0280123A2B801BAD7B6D5A108E3D4C0
:10263400DCFED011D2855685EF60B0286315058C79
:102644003E57AE56DA88C1BFEA846FE07FFFD011EF
:10265400D2855685EF60F0266317058A3E572E5CB7
:10266400DA8DC1B6D011D2855685EF609025631CF2
:1026740005883E572E5CDA8DD9B6AE56B7F5010003
:102684009385052223A0B80005078545850623A266
:10269400B800BAD7B6D59D45A10863C0D536631234
:1026A40006C6D24793F61400DD8E638406C08646C0
:1026B400F2571D4623A0D800AE563E9723A2F80039
:1026C4008506BAD7B6D5634DD6C4A1086FF02FC717
:1026D40093F40B4002CA130D011B39A82946814605
:1026E4006E85E28546CE1AC8EF90E0334243F24845
:1026F40063030C6AAA8D2E8C294681466E85E28579
:1027040046CE1AC8EF900068D24713050503A30FFD
:10271400ADFE85073ECA7D1D4243F248E1D06257B3
:1027240083460700E39CD7FA1307F00FE388E7FA20
:1027340063150C00A547E3F6B78F9647B64546CE1A
:10274400330DFD403E866A851AC8EF401032E257C9
:102754002946814683CE17006E85E285B33ED001BB
:10276400F6973EDC02CAEF90002C4243F24859B778
:10277400D011D2855685EF60D01419C16FE0BFF82F
:10278400DA8811B26297850723A028016FF06FB130
:10279400CE570C1108193ED9DE5746C802D13EDB8C
:1027A400EE5702D302D53EDDFE5702D73EDFEF904F
:1027B4001031C2486343056E0347710C93077004DC
:1027C40063D99725B7F70100138D471E02C802D6B7
:1027D40002DA02D893F4F4F78D4B0D4C014319C37C
:1027E4006FE05FFF6FF08FA3B247228D9C433AC620
:1027F400124798C36FF0AF8C6A85EF40B02003474F
:10280400710C934BF5FF93DBFB416EC602C802D6F5
:1028140002DA02D82A8CB37B75010143F24819C34A
:102824006FE05FFB6FF08F9F13F7042063080724AA
:102834003247A68B3EC6830D070013DCFD41E286BA
:102844006FF0AF8E13F704206306072293FDFD0F8C
:10285400014C3EC66FF0AFF613F704206306072061
:102864003EC693FDFD0F014CA68B85476FE07FF2BA
:10287400FE5763DF07209307D002A303F10C13076D
:10288400D0029307700463DB976BB7F70100138DD5
:10289400C71E2DBF6297850623A0280123A28801A5
:1028A400BAD7B6D51D46A108E35BD6B0D011D28500
:1028B4005685EF60100119C16FE0FFE43E57DA88D6
:1028C400FDBCD2471D4CC14DEA973ED0D257ADCF87
:1028D400B257B5EFE257FD173EDCD257FD173EDA8B
:1028E400B6469647A10823ACD8FEAE563E9723AE13
:1028F400F8FE8506BAD7B6D56341DC0CE25703C6A9
:1029040007008257B286B385974163D3C500AE866C
:102914006351D0022E56369723A09801050623A2B0
:10292400D800BAD7B2D56345CC0AE257A10803C68A
:10293400070093C5F6FFFD85ED8EB306D640634CC4
:10294400D000B29CD257C9F7B2576383073AB25743
:10295400FD173ED671B72E5663C6DD003DA8C116DD
:1029640063DDDD024107050623A0280123A2B80187
:10297400BAD7B2D5A108E354CCFED011D28556857E
:1029840036CEEF60007419C16FE0FFD7F2463E57B0
:102994002E56C116DA88E3C7DDFC3697050623A058
:1029A400280123A2D800BAD7B2D56347CC3CE2575A
:1029B400A10803C60700B29C71B7D011D285568511
:1029C400EF60207019C16FE01FD43E57DA883DB71D
:1029D400D011D285568536CEEF60A06E19C16FE056
:1029E4009FD2E2573E57DA8803C60700F24691B7F2
:1029F400850C93888700BE8D7DB0D011D285568515
:102A0400EF60206C19C16FE01FD03E463E57DA8854
:102A140079B1B7F70100138D071E4DBBD011D285D4
:102A24005685EF60006A19C16FE0FFCD3E57DA8822
:102A3400ADBA194CD1B6D246B307DD00338C86410A
:102A4400338D9741E355AC9F628DD5B2B2473AC6F8
:102A540012479C43228D2390E7006FE05FE693FDCD
:102A6400FD0F014C6FE0BFD13EC6014CA68B8547DC
:102A74006FE03FD2014C3EC66FF06FD43247A68B55
:102A84003EC6832D070013DCFD41E2866FE0FFE9BB
:102A94000347710CFDB3930700032304F10C930760
:102AA4008005A304F10C93E7240013073006BEDC71
:102AB40002C8130DC1146342675CFE5E93F7FCFD0C
:102AC400BED682DE93E42410CE525E5FEE5F63CD09
:102AD4000E2813071006638FEC5E13071004639629
:102AE400EC98930B010B5E8546D81AD616D97ADB7F
:102AF4007EDD76DFEFB01039F001EF4000542E8612
:102B0400AA855E85EFB090204A571C09130C010A70
:102B14003AC95A571001BE853ACB6A5762853ECAF4
:102B24003ACD7A57B2D802C13ACF3707FC3F3AC7F9
:102B340002C302C5EF9070080A589A5E2A5FBA5F12
:102B4400E2855E8542D942D476DB76D27ADD7AD0CC
:102B54007EDF7ECE02D102D302D502D7EF90A057FA
:102B6400F24F025F925E22583253C25819E1054770
:102B7400BAC737F7010093074720BED49306F3FF83
:102B84006AD0B1A0FD16E2855E85BED2B2D096CEE3
:102B94009ECCC6CA9AC81ED91EDA16DB16D832DDF8
:102BA40032D63EDF3ED436D202D102D302D502D78A
:102BB400EF9060529256A25F325FC25E5258464313
:102BC400D648E643F6420656965741CD6ED0524655
:102BD400B7070340E2855E85C6C81ADA36D83ECF09
:102BE4007AD57ED742D176D302C902CB02CDEF90FB
:102BF400C07CCA5E5A586A565E8576D642D432D2B2
:102C0400EFB0E06BAA852ACE5E85FA5DEFB0F000E6
:102C14004A571256B25E3AC15A57225832CD3AC375
:102C24006A574656D2453AC57A5762856ECF3AC737
:102C340076C942CBEFA06049F2472657C2568A5361
:102C44003E978345070002579A522A56930D170060
:102C5400BA57B6DAA38FBDFE7D575253C648E393E5
:102C6400E6F2B706FE3FE2855E8546D21ACA1ED951
:102C74001EDA16DB16D832DD32D63EDF3ED402D160
:102C840002D302D536D7EF90C053524392586340D3
:102C9400A034D253C2523256A257B706FE3FE28541
:102CA4005E851ED916DB32DD3EDF02D102D302D5AA
:102CB40036D7EF9040425243925811E5F24793F6CB
:102CC400170063960630D657130600039386170041
:102CD400EE9663C70700850DA38FCDFEE39DB6FF77
:102CE400B387AD413ECA6FE0BFFFA68B6FF08FAED6
:102CF400D247B306FD0063FB96EDB68C6FF00FED83
:102D0400C257755763C4E7006358F300F91C93F77F
:102D1400FCFDBED66FE0DFFE5247C25763CDE71E0F
:102D240066573E8C058B01C77257338CE700E65714
:102D340013F7074001C7C257634CF042934BFCFFA3
:102D440093DBFB41B37B7C01930C700602D602DA61
:102D54006FF0CF880347710C014319C36FE09FA73D
:102D64006FE0DFCB02C8BA84370700809307D00234
:102D7400B34ED701BEDEB1BBD011D2855685EF600C
:102D8400403419C16FE03F98E2573E57DA8803C6D2
:102D94000700B29C45BEA547E3EEB7956FF06FA858
:102DA400930B010B9A86F8011308C10D9C090D467B
:102DB400DE85568546D61AD416D916D27ADB7AD051
:102DC4007EDD7ECE76DF76CAEF20400B834605009B
:102DD400130700032A8DD24EF24F025F9252225300
:102DE400B258130C010A638DE6043E471A97B306E2
:102DF400ED00E2855E8536D046CE1ACA16D97ADB56
:102E04007EDD76DF02D102D302D502D7EF90A02C6B
:102E140082565243F248368719E16FE01FEC7E4731
:102E2400930500036364D7006FE03FEB13061700BC
:102E3400B2CF2300B7007E47E36AD7FE6FE0FFE915
:102E4400130C010AE2855E8546D61AD416D916D229
:102E54007ADB7AD07EDD7ECE76DF76CA02D102D3EB
:102E640002D502D7EF902027D24EF24F025F925242
:102E74002253B2583DD9054733076740BAC7BDB797
:102E8400D011D2855685EF60C02319C16FE0BF878A
:102E94003E4C3E57DA886FF04FD69307D002A30317
:102EA400F10C1307D00219BA0347710C6EC602D68F
:102EB40002DA02D89A8B1A8C014319C36FE09F91EE
:102EC4006FE0DFB5D011D2855685EF60801F19C140
:102ED4006FE07F833E4CD2473E57DA88338C87417C
:102EE4006FF0EFD4E65713F71700C2573367670044
:102EF400635AF030631D072C425C930C6006E6575E
:102F040013F7074063180726934BFCFF93DBFB4141
:102F1400B37B7C0125BDD2477257930C7006338C6A
:102F2400E700C257E34DF0FC330CFC40050C934B17
:102F3400FCFF93DBFB41B37B7C0109BDB7F70100C8
:102F4400138D871E61B0C155330CC0406359B6045C
:102F5400C14D9D4C21A0411C63D38D0541078506BD
:102F640023A0280123A2B801BAD7B6D5A108E3D477
:102F7400DCFED011D2855685EF60A01419C16FE034
:102F84008FF83E57AE56DA88F9B7B7F60100938D3D
:102F9400061C6FE09FC2FD573EC26FE06FF8629758
:102FA400850623A0280123A28801BAD7B6D51D46D9
:102FB400635DD6F0D011D2855685EF60801019C1BB
:102FC4006FE06FF43E57AE56DA886FE05FB7825712
:102FD400EE86BECFA65703C6FDFF83C5F700631E6A
:102FE400B60013050003A38FA6FEFE461386F6FF64
:102FF400B2CF03C6F6FFE388C5FE9305160013059A
:10300400900393F5F50F6305A600A38FB6FEC9B927
:10301400A65783C5A700A38FB6FED9B193070003B3
:103024002304F10C93078007ADBCB3066D00130CA9
:10303400010AC1B3130C1300930B010B1308C10D48
:103044009C09F801E2860946DE8556851AD416D90C
:1030540016D27ADB7AD07EDD7ECE76DF76CAEF10AA
:10306400F061D24EF24F025F92522253B2582A8D2F
:10307400B3068D01130C010AADBB930513005685ED
:1030840046CA1AC8EF20F0652A8D4243D248630726
:10309400051C2AC81DB4630403006FE05FBB05432D
:1030A4006FE0FFBA19436FE09FBA9306610D19E60A
:1030B40093060003230BD10C9306710D1C1B33865E
:1030C400F640130707039307D60D2380E600BEC41A
:1030D4006FE0BFCD930B010B5E8546D81AD616D987
:1030E4007ADB7EDD76DFEFB0E059F001EF30F0748B
:1030F4002E86AA855E85EFB060414A571C09130CE1
:10310400010A3AC95A571001BE853ACB6A576285FB
:103114003ECA3ACD7A57B2D802C13ACF3707FC3FFC
:103124003AC702C302C5EF9040290A589A5E2A5F43
:10313400BA5FE2855E8542D942D476DB76D27ADD07
:103144007AD07EDF7ECE02D102D302D502D7EF80C1
:103154009078F24F025F925E22583253C25819E1BE
:103164000547BAC737F701009307071FBED439B420
:10317400930C7006E25702D602DA03C7070013065F
:10318400F00F6307C702C2576354F702E255998FE1
:103194003ED883C6150089CAD257368785073EDADA
:1031A400938715003EDCF1BFB25785073ED6D1BFE9
:1031B400D25732573E9796473307F7023A9C934BC0
:1031C400FCFF93DBFB41B37B7C016FE03FC1725793
:1031D400930C6006338CE7001A9C15B3C25705475D
:1031E4009306D0021D8FA30AD10C6FE0BFB4E6573B
:1031F40013F7170019E36FE0BFBC6FE03FBCC6874D
:103204006FF0EFB811E7854B930C6006054C3DBE9B
:10321400F257930C6006138C17001A9C934BFCFF17
:1032240093DBFB41B37B7C0115B6B24703A30700D4
:103234009107635303007D53034E14003EC63A8442
:103244006FE0CFC1A68B6FE0DFBBA68B6FE00FF200
:103254008947BEC46FE07FB51A8C19BD8357CA0075
:1032640093E707042316FA006FE0AFCAB2862E86EE
:10327400AA8503A501826FE0EFA983D7C50003AE39
:10328400450603D3E50083A8C50103A8450213013D
:1032940001B8F59B13070040232C8146231AF10043
:1032A4002E849C182C00232A914623282147232E60
:1032B40011462A89F2D6231B610046D242D63EC467
:1032C4003ECC3AC83ACE02D0EFE0CFA4AA846359E8
:1032D40005028357410193F7070499C78357C40034
:1032E40093E707042316F4008320C147032481478E
:1032F400268503290147832441471301014882801D
:103304002C004A85892671D5FD54E1B783A7018233
:10331400411122C426C206C6AA842E8499C3985F8A
:1033240029CF0317C40093170701C18393F68700BD
:10333400B9CE1448B5CA13F7170011CF5C4823243B
:1033440004000145B307F0401CCC89CEB2402244AE
:10335400924441018280898B014791E3584818C403
:103364000145EDF68317C40013F7070865D393E707
:1033740007042316F4007D55D1BF3E85952303171A
:10338400C40093170701C18393F68700DDF293F617
:103394000701A1CE918B9DE71448936787002316FC
:1033A400F400C207C183C1FA13F7072813060020EB
:1033B400E303C7F8A2852685EF2070278357C4004E
:1033C400144895BF0C5899C9930704046386F50003
:1033D4002685352D0317C4002328040214481377C7
:1033E400B7FD2322040014C04DBFA5479CC013673A
:1033F40007042316E4007D5591BF797162C403ACC0
:1034040081814ECE52CC56CA5AC806D622D426D270
:103414004AD05EC6AA8A2E8B054AFD5903298C140C
:1034240063040902832449001384F4FF634E0400F7
:103434008A04CA9463060B0283A744106382670359
:103444007D14F114E31834FFB250225492540259FB
:10345400F249624AD24A424BB24B224C45618280C5
:1034640083274900D440FD176380870423A2040006
:10347400E1DA8327891833178A00832B4900F98FEF
:1034840099EB829683274900E39A77F983278C1472
:10349400E38827FB61B78327C91883A544087D8F78
:1034A40019E756858296F9BF23228900D1B72E8564
:1034B4008296C9BF8397C500011122CC13970701D7
:1034C40041834EC606CE26CA4AC8937687002E8408
:1034D400AA89D5EA056713070780D441D98F2396B3
:1034E400F500635DD00E185459C7C207C18383A485
:1034F40009009396370123A009004C4C63C4060EBF
:10350400854601464E850297FD576303F5108357A0
:10351400C40018544C4C918B99C754401C58158DB9
:1035240099C35C5C1D8D2A8681464E850297FD57A2
:10353400631CF50A03A709008317C4007DCBF54675
:103544006305D700D9466310D70814487D7713075D
:10355400F77FF98F2316F4002322040014C00C58BB
:1035640023A0990089C9930704046384F5004E8558
:103574007929232804020145F2406244D244424995
:10358400B2490561828003A90501E30609FE84416D
:103594000D8B23A02501B3842441814711E3DC4929
:1035A4001CC463469000C1BF2A99E35690FC5C504A
:1035B4004C4CA6864A864E858297898CE346A0FEAB
:1035C4008357C4007D5593E707042316F400F240A3
:1035D4006244D2444249B24905618280D85DE344E1
:1035E400E0F051BF284805BF8357C4007D77130717
:1035F400F77FF98F1448C207C1872316F4002322EA
:10360400040014C013973701E35B07F428C881BF93
:1036140083A70900E38D07EE75476382E7025947E4
:10362400638FE7008357C40093E707042316F4006D
:10363400A1B77D771307F77F1448F98F7DBF23A0C7
:103644009900014515BF011122CC06CE2A8419C167
:103654001C5D89CB8397C50081EFF240624401452C
:10366400056182802EC6AD2CB2458397C500F5D77F
:1036740022856244F240056135BDAA8501C503A5D2
:103684000182D1B703A58181B73501009385A56473
:1036940031AD01458280B7A50100938585FC39A52C
:1036A4000111B737010006CE22CC26CA4AC84EC63D
:1036B40052C456C25AC040419387A7695CDD1307C0
:1036C400C52E8D472324E52E2322F52E2320052EF7
:1036D40091472A895CC4214681452322040623207C
:1036E4000400232204002324040023280400232AA2
:1036F4000400232C04001305C405EFD0DFBB377B83
:10370400010083248900B77A0100377A0100B77970
:103714000100130BEB12938AAA16130AEA1B93896E
:103724000920C16723206403232254032324440370
:103734002326340340CCA507DCC42146814523A2BB
:10374400040623A0040023A2040023A4040023A845
:10375400040023AA040023AC04001385C405EFD09D
:103764009FB50324C900B707020023A0640323A262
:10377400540323A4440323A63403C4CCC9075CC460
:10378400232204062320040023220400232404000B
:1037940023280400232A0400232C04001305C40551
:1037A40021468145EFD03FB1F24023206403232218
:1037B4005403232444032326340340CC6244854722
:1037C400232CF902D2444249B249224A924A024B7A
:1037D4000561828001458280411126C2130680065C
:1037E4009384F5FFB384C4024AC02E8922C406C65A
:1037F40093854407EF20E06E2A8401CD3105232010
:1038040004002322240108C4138684068145EFD0D2
:103814009FAA2285B24022449244024941018280F7
:1038240001114AC803A981814EC606CE83278903A4
:1038340022CC26CAAA89C1C31309092EFD548327A1
:10384400490003248900FD1763D8070085A0FD17EC
:1038540013048406638C97040317C4006DFBC177BB
:1038640085072322040623200400232204002324A2
:1038740004005CC423280400232A0400232C04002D
:10388400214681451305C405EFD0FFA22328040275
:10389400232A040223220404232404042285F2405C
:1038A4006244D2444249B24905618280032409003A
:1038B40011C4228969B74A85E533BDBF91454E8558
:1038C400213F2320A9002A846DF5B14723A0F900E4
:1038D400F1B703A58181B7A50100938585FCF9A6FD
:1038E4001C5D91C382806DBB8280828082808280D5
:1038F40003A50182B73501009385656935AE03A53B
:103904000182B73501009385857D3DA6411122C40E
:1039140026C237140200B7140200938784D013041C
:10392400C4D01D8C06C6098411C893142400F11454
:10393400BE949C407D14F114829765FCB2402244ED
:1039440092444101828001114AC83719020022CCF5
:1039540026CA4EC62E8406CEAA891309492AEF2008
:10396400F0438326890005679307F7FEC442338436
:103974008740F198269431807D143204634BE4002F
:1039840081454E85EF30C06783278900A697630D74
:10399400F5004E85EF20B040F2406244D2444249E3
:1039A400B249014505618280B30580404E85EF3000
:1039B4002065FD576309F50283A7018683268900E4
:1039C400818C93E41400338487404E85C4C223A0C1
:1039D4008186EF20D03CF2406244D2444249B2494D
:1039E40005450561828081454E85EF30606103277E
:1039F4008900BD46B307E540E3DDF6F883A64182BE
:103A040093E717005CC3158D23A0A18659B7F5C5AC
:103A1400411122C426C22E84AA8406C6EF2010387F
:103A24000325C4FF130784FFB71502009377E5FF4E
:103A34003306F7009385452A544203A88500F19A7A
:103A44006308C81254C205893308D6003DED032328
:103A540084FF032848003715020033076740832892
:103A640087001305C52A9A97137818006385A80E52
:103A74000323C70023A66800232413016301081449
:103A840093E6170054C31CC29306F01F63E1F608C3
:103A94008D83938617008E0603A84500AE96884250
:103AA40013D627408547B397C700B3E707011386AA
:103AB40086FF50C708C7DCC198C258C52244B2402B
:103AC4002685924441016F20902D032548000589E5
:103AD40015E537150200B6971305C52A144693E871
:103AE40017003308F7006384A60E5046D0C614C6E8
:103AF400232217012320F80041BF828093E6170098
:103B0400232ED4FE1CC29306F01FE3F3F6F893D6DB
:103B1400970011466366D60893D66700138596030B
:103B2400138686030E052E9514416115630AD50A82
:103B3400D042719A63F5C7009446E31BD5FEC8468C
:103B440048C714C7224418C5B24026859244D8C633
:103B540041016F20D024631C080C0C465046B697D4
:103B640093E61700D0C50CC654C33E971CC3B9B71F
:103B74000589B69709E9032584FF098F544710473F
:103B8400AA9754C690C613E6170083A6818250C331
:103B940098C5E3E5D7F283A5C18326856D3339BF84
:103BA40051466370D602130640056365D60493D666
:103BB400C7001385F6061386E6060E05ADB7B6975D
:103BC40031BF1385C6051386B6050E05A9BFD8C92E
:103BD40098C948C708C7232217012320F800F9BD54
:103BE40003A84500098685473396C7003366060156
:103BF400D0C1B9B713064015636AD60093D6F7004F
:103C040013858607138676070E0531BF13064055C4
:103C1400636AD60093D627011385D6071386C60791
:103C24000E0511B71305803F1306E007EDBD93E6BB
:103C3400170054C31CC259B5011156C206CE22CC7A
:103C440026CA4AC84EC652C45AC0930A052E638D6A
:103C54000A042E8B014A85497D5983A44A0003A492
:103C64008A00FD1463C304028357C400FD1463FA7D
:103C7400F9008317E400228563852701029B336AD8
:103C8400AA0013048406E39124FF83AA0A00E3969E
:103C94000AFCF24062445285D2444249B249224A63
:103CA400924A024B05618280014AE5B7797156CA8E
:103CB40006D622D426D24AD04ECE52CC5AC85EC69C
:103CC400930A052E63800A06AE8B2A8B014A854926
:103CD4007D5983A44A0003A48A00FD1463C404022A
:103CE4008357C400FD1463FBF9008317E400A28525
:103CF4005A8563852701829B336AAA0013048406CC
:103D0400E39024FF83AA0A00E3950AFCB2502254EC
:103D1400528592540259F249624AD24A424BB24BFA
:103D240045618280014ADDB79306450081476905F4
:103D3400617809A886072390E600C2078906C18333
:103D44006307D50203D706001376170019C293E759
:103D54001700058313F62700B365070161DE8607A4
:103D64002390B600C2078906C183E31DD5FC828077
:103D7400930685010147090509A806072390F60063
:103D84004207F9164183630BD50283D706001396C5
:103D94000701418686076354060013671700C207AC
:103DA400C1831376270093E5170061DA0607239091
:103DB400B6004207F9164183E319D5FC828001114C
:103DC400416E231D0100231E0100E1057C08130838
:103DD40081007D1E03D70500F917F91515E3239F0C
:103DE40007FEE39907FF11069306E10103D70700D5
:103DF40009068907231FE6FEE39AD7FE0561828040
:103E04003307A70283D8270003D30700B376C7017B
:103E1400C696418393D806011A974697935807018B
:103E24002391D7002390E700239F17FFE39407FB18
:103E34005DBF1307250109058357E5FF89E7E31CE7
:103E4400A7FE0145828005458280411122C40354A6
:103E5400250126C206C69347F4FF13971701AA84C7
:103E640019E3C13F09E5E1773D8C23998400B24011
:103E74002244924441018280411122C40354250109
:103E840006C69347F4FF1397170101E75D3781478F
:103E940019E19357F400B24022443E8541018280E7
:103EA40083172501411106C622C426C24AC063C431
:103EB4000704239005008357250121677D17F98F97
:103EC4002391F500130405016385E70493876500D6
:103ED4002392050079157914035724008907239F39
:103EE400E7FEE31A85FE239C0500B2402244924477
:103EF400024941018280FD572390F5008357250133
:103F040021677D17F98F2391F50013040501E39FC1
:103F1400E7FA035725012E89AA847D8F6313F702DC
:103F2400093F05C113076900231209009387C4FFE1
:103F34007914835624000907231FD7FEE39A87FECA
:103F44006DB7930749009305A9018907239F07FECD
:103F5400E39DF5FEB240224492440249410182802D
:103F6400835725015D71A2C493C7F7FFA6C286C615
:103F740013971701AA842E8419E3653D21ED835715
:103F8400240193C7F7FF1397170131C32C0026852B
:103F9400013F4C1022852937835581008357410204
:103FA400638CB7029307A10013076102101083D634
:103FB40007008907A5E2835607000907A1EEE398E5
:103FC400C7FE0145B640264496446161828022853D
:103FD4008D354DDD7955FDB70545A9E31307A100DE
:103FE40093076102890709070356E7FF83D6E7FFB2
:103FF4006C18631CD600E386B7FC890709070356CF
:10400400E7FF83D6E7FFE308D6FEE3EDC6FA330500
:10401400A0404DBF0545DDD57D556DB77D557DBFB0
:10402400411106C63935B24013351500410182806D
:10403400411122C44AC006C626C22E892A8463CCF2
:104044000506BD472E86110593068401BD4563D13F
:104054002703AA87890703D70700239FE7FEE39B6B
:10406400D7FE231C04004116E3C5C5FE1379F900ED
:104074009D4763D4270393078401930524000147D4
:1040840083D60700F91713968600518F2391E70012
:1040940013D78600E396B7FE6119630709007D19FB
:1040A4002285F931E31D09FEB240224492440249BB
:1040B400014541018280C557B304B04063DAF50875
:1040C400930585010149930645003D460357840144
:1040D400AE873369E900F91703D707002391E70096
:1040E400E39BD7FE23120400C114E34196FE9D47CF
:1040F40063DE9702420913590941834784019305FA
:10410400A40101473369F90042091359090183D70E
:104114000600890613D68700518FA207239FE6FE67
:10412400139707014183E394B6FEE11491C88357C2
:104134008401FD142285858B33E92701F536E5F8E2
:10414400B240224433352001924402494101828025
:10415400E55763C4F5000149D9BF014993064400FA
:1041640069BF83574500411126C206C622C44AC00E
:10417400AA84C5E303576500014493170701C18767
:1041840063C207089306A5011306000A1DE393877B
:10419400640019A003D707008907239EE7FEE39B69
:1041A400F6FE239C04004104630EC40403D7640098
:1041B40079DF937707F08DEB1385840193852400D1
:1041C4000147AA8783D60700F91713968600518FF3
:1041D4002391E70013D78600E396F5FE03D7640026
:1041E4002104937707F0E9DF1309000A39A00504D5
:1041F40041366349890003D7640042074187268515
:10420400E35707FE2285B240224492440249410109
:10421400828013F707F001441DE31309F0F639A077
:104224007D141936E30024FF83D744002685EDFB73
:104234002285B2402244924402494101828093067D
:1042440045009305A501014719A083D7060013D69D
:104254008700518FA2072390E60013970701890670
:104264004183E394B6FE83D7440061547DB70111C2
:1042740022CC26CA4AC84EC652C456C23689BE8407
:1042840006CE2A84AE89328ABA8AE13D93070009B0
:104294003309A94063D0A706A167F91763D0271B88
:1042A400638E0A16C8409C406381A70C1387A4013F
:1042B400938744030907231F07FEE31DF7FE9307B3
:1042C4008003630EF52663D6A70493070004630BEB
:1042D400F522930710076314F524B7870040FD17F0
:1042E4002947DCC8E17798C4239CF400D8C4A947C3
:1042F400216781A863590916930700F76359F914D4
:104304009307240069048907239F07FEE39D87FE22
:10431400EDA8E1476308F51C930750036311F520EA
:10432400B70700049387F77F1947DCC8856793872D
:10433400078098C4D8C40567239CF400130707803A
:104344009947A1078607A6972395E70088C0634E7F
:104354002001930700096308F51683578401228519
:10436400858BB3E9F900C932C8408C4483D7440132
:104374001308F00813961500229603570600B37627
:10438400F7006346A8022D486343B80232879305B9
:1043940084018357270099C393E61600231107006D
:1043A4000907E398E5FE0357060083D7440193C742
:1043B400F7FFF98F2310F60083D7640133F7D70092
:1043C40005CB6387D70C1386240313078401F104F8
:1043D4008146835706008355070079177916AE97EF
:1043E400B6972311F700C18393F61700E31396FEE3
:1043F400635D200B83574400B5EFA167231C0400C1
:10440400F91763CF270123112401F2406244D244F7
:104414004249B249224A924A05618280231C04001F
:10442400E17793C7F7FF2311F40093074400610475
:10443400239007008907E31DF4FEC1BF93072400FE
:1044440069048907239F07FEE39D87FE7DBFCA8514
:104454002285F93E11C1854963810A08C8409C4000
:10446400E396A7E4FDB5E38A0AF8C8409C40E31F3D
:10447400F5E2F1BD22854D38A1670509231C04002E
:10448400F917E3CF27F9E35009F823110400B5BF66
:104494006394090ADC4403D784018607A29783D76F
:1044A4000700F98F8DF3E34720F5930700096304B0
:1044B400F5002285753883574400CDFF231C040082
:1044C400E34509FC89B7904483D744010606229644
:1044D40003570600B3F6E700D9BD231C04002311DB
:1044E400040025B7B70780009387F70F1147DCC88E
:1044F4009307001098C4239CF400D8C49147130771
:10450400001081B59D479CC4B7070180FD17DCC826
:104514008547239CF4009947DCC405471DB5B14782
:104524009CC4B7070180FD17DCC88547239CF400B1
:10453400AD47DCC4054731B5E3070AE855BDB70705
:1045440080009387F70F1947DCC89307001098C4BD
:10455400239CF400D8C4994713070010DDB3797184
:104564004ECE8359250026D2AE8406D622D44AD014
:1045740052CC328956CA5AC85EC662C466C26AC080
:104584002A8AC53603D42400B389A9402685D13E9E
:10459400930A4903098C1307E904D6878907239FE3
:1045A40007FEE39DE7FE634B3407930B4A00138B2E
:1045B4004400FD19930CAA01138C24005A87DE874A
:1045C4008907090703D6E7FF8356E7FF631CD6066E
:1045D400E39897FF93068A01138784010146835762
:1045E400070083D506007917918F8D8F2311F7006B
:1045F400C183F91613F61700E313ECFE054D568537
:10460400EFF00FF78357C9047D142685336DFD0041
:104614002316A905EFF0CFF5E31234FBA28622544A
:10462400B250F249624AD24A424BB24B224C924CAB
:10463400024DCA8726850259925401470146814595
:10464400456135B1014DE3ECC6FA69B7035705007E
:104654008357250005CB6177D98F2399F50003573C
:104664002500A167FD176307F70293076500C105DD
:104674006105890703D7E7FFF9152391E500E39A5C
:10468400A7FE82802399F50003572500A167FD1733
:10469400E31DF7FC93076500690503D70700890745
:1046A4001DE3E39CA7FE13872501AE878907239F9B
:1046B40007FEE31DF7FE83D7250121677D17D98FF8
:1046C4002399F500828013870501AE878907239F0C
:1046D40007FEE39DE7FEB7C7FF7F9CC98280757123
:1046E400D6DA835A2501A167FD1722C526C34AC11C
:1046F400CEDEDAD806C7D2DCDED6E2D4E6D233FB8D
:104704005701AA842E893284B6896313FB08EFF01B
:104714004FF263140518035A2901B3774B016399C7
:1047240067194A85EFF0EFF035ED2685D538631526
:104734000518A167FD1733FA4701420A135A0A0103
:104744006314FA204A85E9386318052483D72401C1
:10475400B377FA00638E471726856C00EFF04FF4A9
:104764004A852C10EFF0CFF38354E1000359A102E2
:10477400ADE01C0854106381F620890703D7E7FFD6
:104784007DDB6800F93AB304A0400357A10299A065
:1047940003DA250133F74701E310F7FC2E85EFF028
:1047A4004FE941D91307490109098357E9FF09046E
:1047B400231FF4FEE31A27FFBA402A449A440A4905
:1047C400F659665AD65A465BB65B265C965C4961D6
:1047D40082804A874A8B7C10940009EF6386F61A1C
:1047E400890703D7E7FF7DDB2810A53A0357A10209
:1047F400330BA94083578102938A8903239BE902DF
:10480400239AF9021387E904D687239007008907BE
:10481400E31DF7FE938BC904014A13094102930C6B
:104824000101130C61040355090079196317050E7E
:1048340003D7C904DE87336AEA00F91703D70700F0
:104844002391E700E39B57FF239C0902E31D99FD95
:10485400138749033C109306210403560700890774
:104864000907239FC7FEE39AF6FEF176DA948906D8
:10487400CE8713070004A6960146D2852810C53AB0
:104884000357C100835781026306F714FD572314AD
:10489400F102A28528105D3B05B713874401890402
:1048A40083D7E4FF0904231FF4FEE39AE4FE29B747
:1048B4002685EFF0EFF659C9B7F5010093858532E7
:1048C4004A85EFF0EFE96308050E035A290195B50F
:1048D4002685EFF0EFF411E54A85EFF06FF4E30D70
:1048E40005E62685EFF04FD9AA844A85EFF0CFD8A4
:1048F400638FA40CE1772319F40013072401A28722
:104904008907239F07FEE39DE7FE83572401216760
:104914007D17D98F2319F40045B5D0002C10EFF082
:104924000FCA5E868145F8080355060083570700C1
:1049340079167917AA97AE972311F600C18393F5D8
:104944001700E31387FFEDB583DA2401A167FD1790
:10495400B3FA5701C20A93DA0A01E39FFADE268505
:10496400EFF00FEC3DFD8357290193C7F7FF139731
:104974001701E31307DE8DB7930744010904231FCE
:1049840004FEE39D87FE0DBD930744010904231F24
:1049940004FEE31DF4FE0DB5B7F5010093858532E1
:1049A4002685EFF0EFDB01C983D72401B377FA0042
:1049B400E38747FB4DBF13070401A2878907239FA1
:1049C40007FEE39DE7FEB7C7FF7F1CC8F5B32319B5
:1049D400040025B7231401026DBD835725017171AD
:1049E40022D593C7F7FF26D34AD15AC906D74ECF4B
:1049F40052CD56CB5EC762C566C36AC1EEDE13975D
:104A04001701AA842E893284368B09E7EFF06FC22E
:104A1400631805288357290193C7F7FF13971701D4
:104A24002DC7B7F90100938589322685EFF04FD35E
:104A340055CD83D9240103572901A167FD17B3F983
:104A4400370133FAE7006391F9062685EFF04FDD6D
:104A540061C163163A014A85EFF08FDC51ED93078B
:104A640044010904231F04FEE31DF4FEBA502A5432
:104A74009A540A59FA496A4ADA4A4A4BBA4B2A4CB6
:104A84009A4C0A4DF65D4D6182804A85EFF06FBA0B
:104A940049D91307490109098357E9FF0904231F69
:104AA400F4FEE31A27FFD9B76306FA0626856C08D5
:104AB400EFF00FBF2C184A85EFF08FBE835BA10384
:104AC4008354E10163980B087C18930B01056387F9
:104AD400FB26890783D6E7FFFDDA2818EFF06FE895
:104AE400B307A0403EC60357E101BDA093858932B8
:104AF4004A85EFF0EFC615FD13070401A287890765
:104B0400239F07FEE39DE7FEB7C7FF7F1CC8B9BF1D
:104B1400E31E3AF94A85EFF0AFD049D92685EFF084
:104B2400AFB5AA844A85EFF02FB56380A426E17758
:104B34002319F40013072401A2878907239F07FE82
:104B4400E39DE7FE8357240121677D17D98F23193D
:104B5400F40029BF5EC6268726C41C10541809EF2A
:104B64006386F61E890703D7E7FF7DDB6808EFF04D
:104B74004FDFB387A4403EC46257130D8B03EA870B
:104B8400232AEB029304EB048907239F07FEE39D8A
:104B940097FE2818EFF04F99035C2102C169930B2B
:104BA4000105131A0C01330A8A41930AA103FD1962
:104BB400930CE106130961050355C1038357E1030F
:104BC400CE8D42053E956368AA0033558503931D37
:104BD400050193DD0D01D0086C086E85EFF02F9E62
:104BE4007018BC088907090603D5E7FF8355E6FF5B
:104BF4006313B50CE39897FF0145EC105E86835769
:104C0400060003D805007916898FB387074123115D
:104C1400F600C183F91513F51700E31256FF2310AC
:104C2400BD017C18890703D60700239FC7FEE39BB9
:104C340077FF23180104090DE390A4F981457C183A
:104C440093062105890703D7E7FFD98DE39CD7FE97
:104C5400B335B00013074B033C180356070089070C
:104C64000907239FC7FEE39AF6FEB24722479166DF
:104C7400FD16B38BE740DE96DA871307000401467E
:104C84002818EFF0CFDE0357C1018357810363086F
:104C9400F70EFD57231CF102A2852818453AF9B3F3
:104CA40013874401890483D7E4FF0904231FF4FE16
:104CB400E39AE4FE65BBE3F1A5F49387FDFF9398C3
:104CC400070193D8080101454C18F01083570600DA
:104CD40003D805007916898FB38707412311F6009D
:104CE400C183F91513F51700E31226FF7018BC08E9
:104CF4008907090603D5E7FF8355E6FF6316B50068
:104D0400E39897FFC68DCDBDE3FEA5FEF91DC20D48
:104D140093DD0D0101454C18F0108357060003D8AC
:104D240005007916898FB38707412311F600C183E3
:104D3400F91513F51700E31226FF7DBD930744010F
:104D44000904231F04FEE39D87FE0DB30357C1012D
:104D5400835781036308F702E1772319F4001307EB
:104D64002401A2878907239F07FEE39DE7FE83575B
:104D7400240121677D17D98F2319F400C5B9231C99
:104D8400010219BF23190400D9BF231904005DB31C
:104D9400797122D406D62E845C001307E1018907B9
:104DA400239F07FEE39DE7FE0356E50093170601E4
:104DB400C18763C90704A167FD17231201007D8E13
:104DC400630AF6049307E5002313C1001307A10047
:104DD400F91783D607000907231FD7FEE31AF5FE48
:104DE40011EA23140100A28548008D30B2502254E8
:104DF400456182808547FD5548002314F100EFF09A
:104E04002FA3D5B7FD572312F100A167FD177D8E9F
:104E1400E31AF6FAAA879306E50003D70700890781
:104E240031E3E39CF6FE13074401A2878907239F1D
:104E340007FEE39DE7FE13072401A2878907239F4A
:104E440007FEE39DE7FE8357240121677D17D98F71
:104E54002319F4008317E500E3DA07F82285EFE06D
:104E6400DFFE69B713070401A2878907239F07FEA2
:104E7400E39DE7FEB7C7FF7F1CC88DBF83AE050067
:104E840003AE450003A38500CC4541718328050486
:104E94002EDEFD552320B116930500092324811E1F
:104EA4002326711D2326111E2322911E2320211F38
:104EB400232E311D232C411D232A511D2328611D1E
:104EC4002324811D2322911D2320A11D232EB11BE8
:104ED40076D872DA1ADC2322B11632C436C83ACA3A
:104EE40042CEAA8B3E84638F080078418547C685ED
:104EF400B397E70023A2E80023A4F800EF10A07002
:104F040023A00B04130A01060818D28551355285D3
:104F1400EFE09FF6630D0518224785471CC08D47B7
:104F2400630DF718D1473EC6E317072A83572107B5
:104F34000327411693C7F7FF3ACC1397170111E7DC
:104F44005285EFE01FEFE3180512930700092322AF
:104F5400F116F818D287D018890783D6E7FF090716
:104F6400231FD7FEE39AC7FE0356E10802C2931734
:104F74000601C18763D907004606C1674582FD174C
:104F84002317C1083EC237FB010093078B32138DF0
:104F9400470181463C096A87930DC10A19A08356CB
:104FA40007008907239FD7FE0907E39AB7FF630E1B
:104FB4000610A167FD17E304F6248317C108E3DC98
:104FC400072AEC186A85EFE0BFF9630A0510634607
:104FD400056C8357E108E39C07308317C1088144BB
:104FE4009309011663C30702B7F701009387873259
:104FF40013848711F018CE86B2852285EFF02FEE48
:105004008317C108FD14E3D707FE8009130C810E32
:105014002287FC181009890783D6E7FF0907231F95
:10502400D7FEE39AC7FE81463C096A8719A08356D6
:1050340007008907239FD7FE0907E39AB7FFB7F74D
:1050440001001387873293878732FD7A1309870219
:10505400930CC712938D871119A0D10C5109A28505
:105064006A85EFE0FFEFA285635BA0026685EFE04F
:105074003FEFCE862286A285634C05004A85EFF079
:105084000FE63009CE86B2854A85EFF04FE5D69417
:1050940093D7FA01BE9A93DA1A40E310B9FD3009A6
:1050A400CE86EA853285153A1309411289A0224732
:1050B400232004008D47E317F7E6424C62C69307AA
:1050C400A002E3D587E73EC695B5FC189306E10830
:1050D40003D707008907E31607EEE39BF6FE814436
:1050E40013094112930901168009130C810EA2853C
:1050F4002809EFE0FFDA3809A287890783D6E7FF9A
:105104000907231FD7FEE39A87FFA285E81823180F
:10511400010AEFE0FFD8FC1809040357E4FF8907EC
:10512400239FE7FEE31A84FF28094E86EC18231A0E
:105134000108EFF0CFC20355C11A63130514130D10
:1051440041091304E107930A610B93058B32E818B4
:10515400EFE01FE1630605120147EA8609A8060786
:105164002390F6004207F9164183638B860283D7A6
:1051740006001396070141868607635406001367E9
:105184001700C207C1831376270093E5170061DA7D
:1051940006072390B6004207F9164183E39986FC7B
:1051A4005819FC18890783D6E7FF0907231FD7FE80
:1051B400E39AA7FF2316010C0147F40109A8060787
:1051C4002390F6004207F9164183638B560383D775
:1051D4000600139607014186860763540600136789
:1051E4001700C207C1831376270093E5170061DA1D
:1051F40006072390B6004207F9164183E39956FD4A
:105204000147F40109A806072390F6004207F9169E
:105214004183638B560383D70600139607014186A7
:1052240086076354060013671700C207C183137609
:10523400270093E5170061DA06072390B6004207BA
:10524400F9164183E39956FD0146EA86F80183D5B0
:10525400060083570700F9167917AE97B297239182
:10526400F600C18313F61700E31357FF28094E868F
:10527400EC18EFF0CFAE0355C11AFD14E30705ECAB
:1052840092479DCB22479307D0022302F1128D4708
:105294003244630CF702A9476304F57A1305050346
:1052A4009307E002A302A1122303F112634E045AEE
:1052B400930771123EC23DA82247930700022302BE
:1052C400F1128D473244E318F7FC26949307A002A9
:1052D400E3D387FCA9476303F5749307E00213053E
:1052E40005032303F11293077112A302A1121304FD
:1052F400A0023EC2014D930A410B930C4109130CC9
:10530400E107930D610B0146E68509A80606239083
:10531400F5004206F9154182638B850383D70500A6
:10532400139507014185860763540500136616002B
:10533400C207C1831375260093E8170061D90606D6
:10534400239015014206F9154182E39985FD56869D
:10535400FC18890783D5E7FF0906231FB6FEE39AE5
:1053640097FF2316010C0146EC0109A806062390B9
:10537400F5004206F9154182638BB50383D7050016
:1053840013950701418586076354050013661600CB
:10539400C207C1831375260093E8170061D9060676
:1053A400239015014206F9154182E399B5FD0146A2
:1053B400EC0109A806062390F5004206F91541827E
:1053C400638BB50383D705001395070141858607D1
:1053D4006354050013661600C207C18313752600C3
:1053E40093E8170061D90606239015014206F915C2
:1053F4004182E399B5FD0145E685F00183D80500B6
:1054040083570600F9157916C697AA972391F500D4
:10541400C18313F51700E313B6FF4E86EC18280971
:10542400EFF0EF938357C11A1247938507033306AE
:10543400A7012300B600050DE357A4ED930914005A
:10544400BA99330D87001147635AF70615476381EC
:10545400E76483C7E9FF1387E9FF93F7F707634618
:1054640004609306E0026380D70493861700230048
:10547400D70093068003930500031306E002130587
:10548400800363C7F6001DA82300D7006378F502E4
:105494002300B7007D178347070093F7F707938628
:1054A4001700E393C7FE8347F7FF9306800363FC6B
:1054B400F662930710038504A30FF7FEB7F5010006
:1054C40026869385055A6A85EF10B04183572107D4
:1054D40062472328911693C7F7FF2322E1161397F7
:1054E400170119EB5285EFE0BFB36312051A528519
:1054F400EFE03F94631D0518D2468347411213879A
:10550400140098C2638E076A1307E0026387E704F6
:10551400CA879306E00219A06302D704850703C76C
:1055240007007DFB930650046365F90001A86387B7
:105534002701FD1703C70700E31BD7FE23800700DD
:10554400CA87930600021306D00203C70700630448
:10555400D7006312C7028507CDBFCA8703C71700E8
:105564008507A38FE7FE5DDF03C717008507A38FB9
:10557400E7FE6DF745BF4A8421A003C707003684C0
:105584002300E40093061400850765FBA2468947BF
:105594000347F4FF6383F60EB247BE8663D39700D6
:1055A400A686930700036314F702B307244163D06C
:1055B400F6021306000319A063DBE6007D1483479B
:1055C400F4FF2300040033072441E387C7FE224786
:1055D4008D476301F708C24723A20B041386970083
:1055E400DD4763FAC7080547914786079386470155
:1055F400BA850507E37BD6FE23A2BB045E85EF00D4
:10560400307A23A0AB04CA85AA84EFA0BFC5F247B1
:1056140089C733042441269480C38320C11E0324F4
:10562400811E26850329011E8324411E8329C11D51
:10563400032A811D832A411D032B011D832BC11CB9
:10564400032C811C832C411C032D011C832DC11BA5
:105654007D618280B247BE9463C40438D247424716
:105664009C43BA973EC8C24723A20B041386370053
:10567400DD47E3EAC7F6814551B793070003E31C0E
:10568400F7F4B30724418546E3C5F6F2A9B75247B8
:1056940089679387F7701CC365B5930A410B5687D6
:1056A400FC181009890783D6E7FF0907231FD7FED3
:1056B400E39AC7FE91679387E7082313F10CB7F7C2
:1056C400010093878732138C870CA167FD173ED2A4
:1056D400F1778907414E8144130941129309011658
:1056E4008009930CA10A3ED4CE863009D685628502
:1056F40072D0EFF08FAE025EF8003C09890783D6C2
:10570400E7FF0907231FD7FEE39AB7FF9257835594
:10571400E10533F6F500A2573305F6006359A02CD2
:1057240013060009098E2287FC00890783D6E7FF48
:105734000907231FD7FEE39A47FF6359C004BD47F7
:10574400228763D4C7024116935646001387160076
:1057540006072297A2878907239F07FEE39DE7FE9A
:1057640013060008098E9206158EB7F70100938779
:10577400873206063E968356062383570700F58F25
:105784002310F700C205C18563C405103C092287B4
:1057940003D607008356070089070907631FD6004D
:1057A400E398FCFE56873C09890783D6E7FF09077F
:1057B400231FD7FEE39AB7FFF294B7F7010093874C
:1057C4008732510C9387C712135E1E00E31EFCF050
:1057D4008357610C0357E108B001BA977177130737
:1057E40027F7BA972313F10CF818D687890783D6BD
:1057F400E7FF0907231FD7FEE39AC7FE01473C09C9
:1058040019A003570D008907239FE7FE090DE39AAA
:10581400B7FFB7F701001387873293878732056C88
:10582400130D8702938D871131A0135C1C00630A4A
:10583400BD23510DD6856E85EFE08FF2D685634288
:10584400A0226A85EFE0CFF1E341A0FECE86568622
:10585400D6856A85EFF06F983009CE86B2856A8561
:10586400EFE0FFE7E294D1B78357C11A130D611239
:1058740093097112C9BE13094112B7F5010093854A
:10588400C5574A858964EF10D0059384F4703DB9F7
:10589400FC00228729A09306E105E389F6EE03D6EE
:1058A40007008356070089070907E306D6FE8357D6
:1058B400210E1257F98F639FE700228572D0EFE023
:1058C4004FD7025EE31405EC2285EFE06FF5025E2C
:1058D400E31E05EAEC116A8572D0EFE06FDC2C025E
:1058E4002285EFE0EFDB0356C10E0355A110835E62
:1058F400E10E1346F6FF420641822316C10EB3851C
:10590400AE40AA86025E635FB004CA8638021C12E7
:1059140009078355E7FF8906239FB6FEE31AF7FEBE
:10592400231E01123802F41119A003D60600090738
:10593400231FC7FE8906E31AF7FE23100112F8118C
:10594400CA87130FC113890783D6E7FF0907231FEB
:10595400D7FEE39AE7FF8356A110B305D54123127E
:10596400011036856382052636D69307F0F663CD9B
:10597400F504E81172D0EFE0AFEB025EB256AA85EF
:105984001C1250020355C10E03578110630FE52604
:10599400014503D70700835E0600F917098F330713
:1059A400D7412391E7004183137517001307A11012
:1059B4007916E390E7FE0546CE8713070004280214
:1059C40072D0EFE0DF8A025EA285280272D0EFE097
:1059D400FFC7025E65BBC247138CF7FF6FF00FEE83
:1059E400D247230201124A8423A00700ADB9A2873B
:1059F400D8118907239F07FEE39DE7FE61B3924711
:105A040013094112F1C7B7F50100938545584A853A
:105A14008964EF10006D9384F4704DBC93071003F8
:105A2400A302F1129307E0022303F1128504130485
:105A3400900293070003A303F1123C123EC25DB827
:105A440093071003A302F1129307E0022303F11258
:105A5400850463498016130D7112E31104A66AC20A
:105A640051B8130C810E6FF08FE893071003238F46
:105A7400F9FE8504A1B413094112B7F50100938519
:105A8400C5594A858964EF10C0659384F4703DBCA0
:105A94002C09E818EFE09FBB93058B322809EFE04F
:105AA4002FCCE318059AE34B04A083C7E9FF1387BF
:105AB40027FD133717001347F7FF6A9703470700BB
:105AC400058BE30D079E1387E9FF93F7F70751BA98
:105AD400B7F50100938505594A858964EF10606024
:105AE4009384F470E5B28507A30FF7FEC1BA800969
:105AF400A285E818916AEFE0AFBA8144130C810ED5
:105B04001309C10C9309210DF91A930C50FD835705
:105B1400810E9D8BD1EF5819A287890783D6E7FFA1
:105B24000907231FD7FEE39A87FF48192316010CA0
:105B3400EFE08F9F4819EFE02F9F0146CA866287E6
:105B440083D5060083570700F9167917AE97B297E5
